:070A02004400360000000073
:0F0D2A007F647E00120C117F41120D4880F2226F
:0300160080FE2247
:0F0D39007F967E00120C117F42120D4880F2222D
:1009AA00754B00754AC27549017548007F187E006B
:1009BA001208467F107E27120AA2C2AF120CF37BDE
:1009CA00FF7A007916AC02AD017B007F001207287E
:1009DA007BFF7A0D792AAC02AD017B007F001207FA
:1009EA00287BFF7A0D7939AC02AD017B007F0012BA
:0809FA000728120BA980FE2260
:03002300020019BF
:0100190032B4
:050A090042003A03E881
:040C11008E468F4735
:100C1500E5471547AE4670021546FFEF4E601E903C
:100C2500003A74FF75F0FF1200F5AFF0FEEF4E705D
:0D0C3500EE90003A7403F0A374E8F080D351
:010C4200228F
:01001A0022C3
:100BDE008E1E8F1FE51F151FAE1E7002151EFFEF16
:100BEE004E601F000000000000000000000000002A
:100BFE0000000000000000000000000000000000E7
:030C0E0080D2226F
:100C43008E548F558D56538700E58720E51E75C753
:100C53000143C78075C502E554FF7E008FC38555E8
:0D0C6300C48556C275C65A75C6A50000228C
:040C70008E578F58B4
:100C7400538700E58720E51E75C70143C78075C506
:100C840001E557FF7E008FC38558C475C65A75C6E3
:080C9400A5000085C259AF590B
:010C9C002235
:100C9D008E608F61538700E58720E51E75C7014380
:100CAD00C78075C503E560FF7E008FC37E00AF6111
:0B0CBD008FC475C65A75C6A500002242
:100A0E000A21C0F9A4B0999282F88090062BF0F1D9
:100A1E00F2F3F4F510313F065B4F666D7D077F6F85
:0C0A2E00777C395E79710441FEFDFBF716
:1002A1008E138F148C158D168B178A188919C3E537
:1002B100149516FFE5139515FEEF4E70030203AD7D
:1002C100AE13AF14E4FCFD7BA07A867901780012AD
:1002D1000AEBAB17AA18A919EF12006CAE13AF14F1
:1002E100E4FCFD7BA07A8679017800120AEBAC0070
:1002F100AD01AE02AF037B107A2779007800120AB4
:10030100EBAB17AA18A919758201758300EF1200CA
:100311007EAE13AF147C277D101200A07E037FE810
:10032100CFCDCFCECCCE1200A0AB17AA18A919758C
:100331008202758300EF12007EAE13AF147C037D41
:10034100E81200A07E007F64CFCDCFCECCCE1200CC
:10035100A0AB17AA18A919758203758300EF1200C3
:100361007EAE13AF147C007D641200A07E007F0A74
:10037100CFCDCFCECCCE1200A0AB17AA18A919753C
:100381008204758300EF12007EAE13AF147C007DF2
:100391000A1200A0AF05AB17AA18A9197582057535
:1003A1008300EF12007E851315851416AB17AA186A
:1003B100A919120026FF74212FF8E6FF8F8043A0B0
:1003C10007E52B52A07F017E00120C11AB17AA1872
:1003D100A91975820175830012003FFF74212FF85E
:1003E100E6FF8F8043A007E52C52A07F017E00121B
:1003F1000C11AB17AA18A919758202758300120096
:100401003FFF74212FF8E6FF8F8043A007E52D52AF
:10041100A07F017E00120C11AB17AA18A9197582D1
:100421000375830012003FFF74212FF8E6FF8F80D0
:1004310043A007E52E52A07F017E00120C11AB17DD
:10044100AA18A91975820475830012003FFF74214F
:100451002FF8E6FF8F8043A007E52F52A07F017E92
:1004610000120C11AB17AA18A91975820575830022
:1004710012003FFF74212FF8E6FF8F8043A007E5AC
:0B0481003052A07F017E00120C1122FF
:0805DF008F0B8E0A8D098C08B8
:1005E7007BA07A8679017800AF0BAE0AAD09AC081B
:1005F7001201968F0D7BA07A8679017800AF0BAE3A
:100607000AAD09AC08120196AC00AD01AE02AF030A
:100617007B107A27790078001201968F0E7B107A6B
:100627002779007800AF0BAE0AAD09AC0812019626
:10063700AC00AD01AE02AF037BE87A037900780026
:100647001201968F0F7BE87A0379007800AF0BAE23
:100657000AAD09AC08120196AC00AD01AE02AF03BA
:100667007B647A00790078001201968F107B647A98
:100677000079007800AF0BAE0AAD09AC08120196FD
:10068700AC00AD01AE02AF037B0A7A0079007800B7
:100697001201968F117B0A7A0079007800AF0BAEB2
:1006A7000AAD09AC08120196AC00AD01AE02AF036A
:1006B7008F12E50C12027B06D40006E20106F00257
:1006C70006FE03070C04071A0500000727852BA061
:1006D700AF0D74212FF8E6FF8F8022852CA0AF0E77
:1006E70074212FF8E6FF8F8022852DA0AF0F74218C
:1006F7002FF8E6FF8F8022852EA0AF1074212FF8E8
:10070700E6FF8F8022852FA0AF1174212FF8E6FF17
:100717008F80228530A0AF1274212FF8E6FF8F80DB
:0107270022AF
:100846008E468F47439850438E05AF4BAE4AAD490F
:10085600AC487B647A00790078001201968F4B8E43
:100866004A8D498C48AB4BAA4AA949A8487F907E35
:10087600D07D037C00120196A804A905AA06AB0741
:10088600AE46AF47E4FCFD12010B7B647A007900AB
:100896007800120196A804A905AA06AB07C3E49B33
:1008A600FFE49AFE740199FDE498FC7B007A0179D5
:1008B6000078001201968FD6AB4BAA4AA949A848E0
:1008C6007F907ED07D037C00120196A804A905AA1C
:1008D60006AB07AE46AF47E4FCFD12010B7B647A1C
:1008E6000079007800120196A804A905AA06AB07AC
:1008F600C3E49BFFE49AFE740199FDE498FCEF546F
:10090600FFFFEE5400FEED5400FDEC5400FC8FD7C3
:08091600438E10D2AFD2AC22D7
:10000300759850438E01438E0475D7CC75D6FF4344
:030013008E10222A
:0F0D48008F46C2AF8546993099FDC299D2AF222E
:100CC8008B5A8A5B895CAB5AAA5BA95C120026FF27
:100CD800EF6017AB5A055CE55CAA5B7002055B1414
:0B0CE800F9120026FF120D4880DC22EC
:0B0D5700309805C298AF99227F00225F
:040AA2008E468F47A6
:100AA600AE46AF47E4FCFD7B007A8079007800C350
:100AB600120228401EE54725E0FFE54633FEC3E463
:100AC6009FF549E49EF548E548FF7E008F8D8549F0
:100AD6008B8006758D00758B00538EBF53890F432F
:040AE6008900C28F32
:010AEA0022E9
:040B2F008E1A8F1B70
:100B3300AE1AAF1BE4FCFD7B007A8079007800C31A
:100B4300120228401DE51B25E0FFE51A33FEC3E42E
:100B53009FF51DE49EF51CE51CFF7E008F8D851D12
:080B63008B22758D00758B00DB
:010B6B002267
:040A55008E4C8F4DE7
:100A5900AE4CAF4DE4FCFD7B007A8079007800C391
:100A6900120228401EE54D25E0FFE54C33FEC3E4A4
:100A79009FF54FE49EF54EE54EFF7E008F8C854F26
:100A89008A8006758C00758A00538EBF53890F437F
:080A99008900D2A9D28CD2AF72
:010AA1002232
:040B6C008E508F51C7
:100B7000AE50AF51E4FCFD7B007A8079007800C371
:100B8000120228401DE55125E0FFE55033FEC3E485
:100B90009FF553E49EF552E552FF7E008F8C8553FE
:080BA0008A22758C00758A00A1
:010BA800222A
:100A3A0041000400440005000000004400000000DA
:0A0A4A000000C100015D00015E0024
:100CF300900004E4F090000512024A000000009006
:0C0D0300000012024A00000000C20022A2
:100BA900900004E0FFEF75F009A4240FF582E43406
:100BB90000F583E024F3F0900004E0FFEF75F009FD
:100BC900A4240FF582E43400F583E0FF8F81D28EEF
:050BD900D2ABD2AF22F7
:100D0F00C2AF900004E0FFEF75F009A4240FF58245
:0B0D1F00E43400F583E581F0D2AF2240
:080728008F468C478D488B4978
:10073000755D00E55DC394054003020845AF5D7437
:10074000017E00A807088005C333CE33CED8F9FF59
:10075000EE3395E0FDFC900005E0F8A3E0F9A3E09E
:10076000FAA3E0FBEF5BFFEE5AFEED59FDEC58FCFF
:10077000EC4D4E4F6003020840AF5DEF75F01BA4D7
:100780002462F8AF008F5F755E00E55EC3941B5076
:100790000FAF5FA807AF5EE82FF87600055E80EA2E
:1007A000AF5DEF75F009A4240FF582E43400F58302
:1007B000E55FF07E00AF48AE5FA806A607AF5DEF2D
:1007C00075F009A4240FF582E43400F583E004F009
:1007D000E547FF7E00AE5FA806E804F8A607AF5D18
:1007E000EF75F009A4240FF582E43400F583E024CA
:1007F0000DF0900005E0FCA3E0FDA3E0FEA3E0FF08
:10080000C004C005C006C007AF5D74017E00A80724
:10081000088005C333CE33CED8F9FFAB07AA06EA6A
:100820003395E0F9F8D007D006D005D004EF4BFFA0
:10083000EE4AFEED49FDEC48FC90000512023E2216
:05084000055D02073315
:010845002290
:03001B0002048C50
:10048C00C0E0C0F0C083C082C0D075D000C000C036
:0D049C0001C002C003C004C005C006C007B7
:1004A900754500C2AFC28F900004E0FFEF75F009F7
:1004B900A4240FF582E43400F583E581F09000046B
:1004C900E0FFEF04F545E545C394055045AF457494
:1004D900017E00A807088005C333CE33CED8F9FFC3
:1004E900EE3395E0FDFC900005E0F8A3E0F9A3E008
:1004F900FAA3E0FBEF5BFFEE5AFEED59FDEC58FC69
:10050900EC4D4E4F6008900004E545F0806C0545C0
:1005190080B4754500900004E0FF7E00EF2401FFE0
:10052900EE3400FEAD457C00C3ED9FEE6480F8EC2F
:100539006480985045AF4574017E00A8070880057E
:10054900C333CE33CED8F9FFEE3395E0FDFC9000EE
:1005590005E0F8A3E0F9A3E0FAA3E0FBEF5BFFEE07
:100569005AFEED59FDEC58FCEC4D4E4F600C9000D5
:1005790004E545F080040545809B900004E0FFEF09
:1005890075F009A4240FF582E43400F583E0FF8FA8
:1005990081900000E0FCA3E0FDA3E0FEA3E0FF7B67
:1005A900017A0079007800EF2BFFEE3AFEED39FD74
:0B05B900EC38FC90000012023ED2AFB4
:1005C400D007D006D005D004D003D002D001D0008B
:0B05D400D0D0D082D083D0F0D0E03235
:0B0D62007B007A007962AF018F8122D4
:0300000002091ED4
:0C091E00787FE4F6D8FD7581E8020965D9
:10002600BB010689828A83E0225002E722BBFE02D8
:09003600E32289828A83E493220B
:10003F00BB010CE58229F582E5833AF583E0225076
:10004F0006E92582F8E622BBFE06E92582F8E222C0
:0D005F00E58229F582E5833AF583E49322DA
:10006C00BB010689828A83F0225002F722BBFE0173
:02007C00F3226D
:10007E00F8BB010DE58229F582E5833AF583E8F0B8
:10008E00225006E92582C8F622BBFE05E92582C864
:02009E00F2224C
:1000A000BC000BBE0029EF8DF084FFADF022E4CC44
:1000B000F875F008EF2FFFEE33FEEC33FCEE9DEC0D
:1000C000984005FCEE9DFE0FD5F0E9E4CEFD22ED53
:1000D000F8F5F0EE8420D21CFEADF075F008EF2F9D
:1000E000FFED33FD4007985006D5F0F222C398FD8E
:0500F0000FD5F0EA222B
:1000F500A3F8E0C5F025F0F0E582158270021583BE
:06010500E0C838F0E8221A
:10010B00E88FF0A4CC8BF0A42CFCE98EF0A42CFC93
:10011B008AF0EDA42CFCEA8EF0A4CDA8F08BF0A411
:10012B002DCC3825F0FDE98FF0A42CCD35F0FCEB70
:10013B008EF0A4FEA9F0EB8FF0A4CFC5F02ECD3935
:0F014B00FEE43CFCEAA42DCE35F0FDE43CFC22A2
:10015A0075F008758200EF2FFFEE33FECD33CDCC5C
:10016A0033CCC58233C5829BED9AEC99E5829840DF
:10017A000CF582EE9BFEED9AFDEC99FC0FD5F0D6BC
:10018A00E4CEFBE4CDFAE4CCF9A88222B800C1B9E6
:10019A000059BA002DEC8BF084CFCECDFCE5F0CB24
:1001AA00F97818EF2FFFEE33FEED33FDEC33FCEB5D
:1001BA0033FB10D703994004EB99FB0FD8E5E4F918
:1001CA00FA227818EF2FFFEE33FEED33FDEC33FC05
:1001DA00C933C910D7059BE99A4007EC9BFCE99AF9
:1001EA00F90FD8E0E4C9FAE4CCFB2275F010EF2F3E
:1001FA00FFEE33FEED33FDCC33CCC833C810D7073E
:10020A009BEC9AE899400AED9BFDEC9AFCE899F878
:0E021A000FD5F0DAE4CDFBE4CCFAE4C8F9220B
:100AEB00C2D5E830E70FB2D5E4C39BFBE49AFAE436
:100AFB0099F9E498F8EC30E717B2D5120B211201F3
:100B0B0096E4C39BFBE49AFAE499F9E498F8800322
:100B1B0012019630D50DE4C39FFFE49EFEE49DFDCC
:040B2B00E49CFC2228
:10022800EB9FF5F0EA9E42F0E99D42F0EC6480C84D
:0602380064809845F022ED
:0C023E00ECF0A3EDF0A3EEF0A3EFF02233
:10024A00A8828583F0D083D08212026112026112E1
:10025A000261120261E473E493A3C583C5F0C58306
:10026A00C8C582C8F0A3C583C5F0C583C8C582C8FE
:01027A002261
:10027B00D083D082F8E4937012740193700DA3A312
:10028B0093F8740193F5828883E473740293686026
:06029B00EFA3A3A380DF26
:10092A000209AAE493A3F8E493A34003F68001F230
:10093A0008DFF48029E493A3F85407240CC8C333CE
:10094A00C4540F4420C8834004F456800146F6DF9D
:10095A00E4800B0102040810204080900A02E47E21
:10096A00019360BCA3FF543F30E509541FFEE49392
:10097A00A360010ECF54C025E060A840B8E493A359
:10098A00FAE493A3F8E493A3C8C582C8CAC583CA84
:10099A00F0A3C8C582C8CAC583CADFE9DEE780BE3C
:010A540000A1
:00000001FF
