:1024940069646C65007461736B31007461736B5FA4
:1024A4006D736768616E646C6572007461736B5FF1
:0B24B40074747930007461736B3200A7
:101D3400750E00750DC2750C01750B007F187E00C1
:101D4400121B947F107E27122188C2AF121F157BAD
:101D5400FF7A25798FAC02AD017BFF7A2479948BCD
:101D6400118A1289137B007A007FFF1213107BFF04
:101D74007A257931AC02AD017BFF7A2479998B11F4
:101D84008A1289137B007A007F021213107BFF7A78
:101D94001679AAAC02AD017BFF7A24799F8B118A54
:101DA4001289137B007A007F011213107BFF7A19CA
:101DB4007979AC02AD017BFF7A2479AF8B118A1259
:101DC40089137B007A007F001213107BFF7A257938
:101DD40042AC02AD017BFF7A2479B98B118A128956
:101DE400137B007A007F0312131012205280FE220C
:0422CA008E538F544C
:1022CE009002C9E4F0A37432F0E5541554AE537085
:1022DE00021553FFEF4E601D9002C974FF75F0FF9B
:1022EE001200EDAFF0FEEF4E70EE9002C9E4F0A3D7
:0522FE007432F080D4F1
:0123030022B7
:0100190022C4
:1023A9008E558F56E5561556AE5570021555FFEFE9
:1023B9004E601F0000000000000000000000000047
:1023C9000000000000000000000000000000000004
:0323D90080D2228D
:10240D008E4D8F4E8D4F538700E58720E51E75C786
:10241D000143C78075C502E54DFF7E008FC3854E14
:0D242D00C4854FC275C65A75C6A5000022B1
:04243A008E508F51E0
:10243E00538700E58720E51E75C70143C78075C524
:10244E0001E550FF7E008FC38551C475C65A75C60F
:08245E00A5000085C252AF5237
:012466002253
:1024BF008E578F58538700E58720E51E75C7014358
:1024CF00C78075C503E557FF7E008FC37E00AF58E9
:0B24DF008FC475C65A75C6A500002208
:101B94008E098F0A439850438E05AF0EAE0DAD0CDF
:101BA400AC0B7B647A007900780012018E8F0E8E64
:101BB4000D8D0C8C0BAB0EAA0DA90CA80B7F907E7F
:101BC400D07D037C0012018EA804A905AA06AB07E8
:101BD400AE09AF0AE4FCFD1201037B647A007900CC
:101BE400780012018EA804A905AA06AB07C3E49BDA
:101BF400FFE49AFE740199FDE498FC7B007A017974
:101C040000780012018E8FD6AB0EAA0DA90CA80B7A
:101C14007F907ED07D037C0012018EA804A905AAC2
:101C240006AB07AE09AF0AE4FCFD1201037B647A3C
:101C3400007900780012018EA804A905AA06AB0752
:101C4400C3E49BFFE49AFE740199FDE498FCEF540D
:101C5400FFFFEE5400FEED5400FDEC5400FC8FD762
:061C6400438E10D2AF22F6
:10251E00759850438E01438E0475D7CC75D6FF4304
:03252E008E1022EA
:0F2553008F0FC2AF850F993099FDC299D2AF2279
:06228F008B0C8A0D890E84
:102295009002C5E4F0AB0CAA0DA90E12001EFFEFCB
:1022A500601DAB0C050EE50EAA0D7002050D14F9A7
:1022B50012001EFF1225539002C5E004F080D6904F
:0422C50002C5E0FF6F
:0122C90022F2
:0B257100309805C298AF99227F00222D
:082587003098FDC298AF9922C3
:042188008E098F0A23
:10218C00AE09AF0AE4FCFD7B007A8079007800C3CD
:10219C00120220401EE50A25E0FFE50933FEC3E4E8
:1021AC009FF50CE49EF50BE50BFF7E008F8D850CE7
:1021BC008B8006758D00758B00538EBF53890F4332
:0421CC008900C28F35
:0121D00022EC
:042215008E418F4225
:10221900AE41AF42E4FCFD7B007A8079007800C3CF
:10222900120220401DE54225E0FFE54133FEC3E4EB
:102239009FF544E49EF543E543FF7E008F8D854479
:082249008B22758D00758B00DE
:01225100226A
:0420F1008E458F4643
:1020F500AE45AF46E4FCFD7B007A8079007800C3ED
:10210500120220401EE54625E0FFE54533FEC3E407
:102115009FF548E49EF547E547FF7E008F8C85488F
:102125008A8006758C00758A00538EBF53890F43CC
:082135008900D2A9D28CD2AFBF
:01213D00227F
:042252008E498F4AD8
:10225600AE49AF4AE4FCFD7B007A8079007800C382
:10226600120220401DE54A25E0FFE54933FEC3E49E
:102276009FF54CE49EF54BE54BFF7E008F8C854C1D
:082286008A22758C00758A00A4
:01228E00222D
:1023040041000200410007004401D20000000042E5
:102314000008000044000300000000C10041000068
:05232400004100010072
:1023DC008E0C8F0DAE0CAF0D7C007D0A1200988E0A
:1023EC000C8F0DAF0D122505900007E0FFEF75F077
:1023FC000FA424DCF582E43401F583E0FFEF70E8F0
:01240C0022AD
:101F1500750900750A00900007E4F09001D21202DD
:101F2500660000000090000312026600000000C277
:101F350000750900750A00C3E50A9405E5099400D2
:101F45005041AE09AF0A9001DE75F00FEF1202970E
:101F5500EE75F00FA42583F58312026600000000DC
:101F6500AE09AF0A9001DC75F00FEF120297EE751E
:101F7500F00FA42583F583E4F0050AE50A70020550
:031F85000980B41C
:011F88002236
:102052007B007A007959AF017877A607900007E0F4
:10206200FFEF75F01EA42421F582E43402F583E02B
:10207200FF7859A607900007E0FFEF75F01EA42431
:1020820022F582E43402F583E0FF785AA6077B004A
:102092007A007959AF018F810581D28ED2ABD2AF4E
:0120A200221B
:021C6A008F0CDD
:101C6C00C2AF900009E004F07006900008E004F0A8
:101C7C00AF0C74017E00A807088005C333CE33CEA9
:101C8C00D8F9FFEE3395E0FDFC9001D2E0F8A3E02B
:101C9C00F9A3E0FAA3E0FBEF5BFFEE5AFEED59FD72
:101CAC00EC58FCEC4D4E4F606C9001D2E0FCA3E084
:101CBC00FDA3E0FEA3E0FFC004C005C006C007AF53
:101CCC000C74017E00A807088005C333CE33CED830
:101CDC00F9FFEFF4FFEEF4FEAB07AA06EA3395E04A
:101CEC00F9F8D007D006D005D004EF5BFFEE5AFE12
:101CFC00ED59FDEC58FC9001D212025A900002E012
:101D0C0014F0D2AF900009E024FFF0900008E0340A
:101D1C00FFF07F0022D2AF900009E024FFF090008A
:071D2C0008E034FFF07F0125
:011D3300228D
:1024EA00C2AF900007E0FFEF75F00FA424DDF5827C
:0B24FA00E43401F583E581F0D2AF224D
:0A1310008F0C8C0D8D0E8A0F8B10D0
:10131A00C2AF900009E004F07006900008E004F003
:10132A00900000E4F0900000E0FFEFC39405400352
:10133A000214CF900000E0FF74017E00A807088025
:10134A0005C333CE33CED8F9FFEE3395E0FDFC90DA
:10135A0001D2E0F8A3E0F9A3E0FAA3E0FBEF5BFF18
:10136A00EE5AFEED59FDEC58FCEC4D4E4F6003026F
:10137A0014C6900001E4F0900001E0FFEFC3941E50
:10138A00502C900001E0FF900000E0FEEE75F01E88
:10139A00A42421F582E43402F583E5822FF582E460
:1013AA003583F583E4F0900001E004F080C99000F1
:1013BA0000E0FFEF75F00FA424DDF582E43401F5B7
:1013CA0083740EF07E00AF0E900000E0FEEE75F022
:1013DA001EA42421F582E43402F583EFF0E50DFF23
:1013EA007E00900000E0FEEE75F01EA42422F58235
:1013FA00E43402F583EFF0900000E0FFEF75F00FA0
:10140A00A424DAF582E43401F583E50CF0AE0FAFDB
:10141A0010AA06A9077B01900000E0FFEF75F00F04
:10142A00A424E2F582E43401F583EBF0A3EAF0A305
:10143A00E9F0AB11AA12A913900000E0FFEF75F0D2
:10144A000FA424D6F582E43401F583EBF0A3EAF085
:10145A00A3E9F09001D2E0FCA3E0FDA3E0FEA3E043
:10146A00FFC004C005C006C007900000E0FF740179
:10147A007E00A807088005C333CE33CED8F9FFAB68
:10148A0007AA06EA3395E0F9F8D007D006D005D0C6
:10149A0004EF4BFFEE4AFEED49FDEC48FC9001D209
:1014AA0012025A900002E004F0D2AF900009E02440
:1014BA00FFF0900008E034FFF07F0022900000E087
:1014CA0004F002132FD2AF900009E024FFF090003D
:0714DA0008E034FFF07F0180
:0114E10022E8
:03001B00020E874B
:100E8700C0E0C0F0C083C082C0D075D000C000C031
:0D0E970001C002C003C004C005C006C007B2
:100EA4009002C2E4F0750800C2AFC28F75080078E2
:100EB40077E6FFE581C39F403A7877E6FFA807AF5E
:100EC40008E82FF8E6FFAE08EEFD3395E0FC90004D
:100ED40007E0FEEE75F01EA42421F582E43402F549
:100EE40083E5822DF582E5833CF583EFF005081553
:100EF4008180BC1508900007E0FFEF75F00FA42473
:100F0400DDF582E43401F583E508F0900007E4F0B0
:100F14009002C27401F09002C2E0FFEFC394054056
:100F2400030210419002C2E0FF74017E00A807088A
:100F34008005C333CE33CED8F9FFEE3395E0FDFC04
:100F44009001D2E0F8A3E0F9A3E0FAA3E0FBEF5BA1
:100F5400FFEE5AFEED59FDEC58FCEC4D4E4F70037C
:100F6400021038900007E0FFEF75F00FA424DAF5C3
:100F740082E43401F583E0FF9002C2E0FEEE75F0F6
:100F84000FA424DAF582E43401F583E0FEEEC39F76
:100F940040030210389002C2E0FFEF75F00FA42462
:100FA400DCF582E43401F583E0FFEF60189002C2BF
:100FB400E0FFEF75F00FA424DCF582E43401F5833F
:100FC400E014F0806F9002C2E0FFEF75F00FA424EC
:100FD400DBF582E43401F583E0FFEFB401048054CF
:100FE40080529002C2E0FF900007EFF0900007E00B
:100FF400FFEF75F00FA424DEF582E43401F583E0FD
:10100400FCA3E0FDA3E0FEA3E0FF7B017A007900EE
:101014007800EF2BFFEE3AFEED39FDEC38FC900042
:1010240007E0FBEB75F00FA424DEF582E43401F550
:101034008312025A9002C2E004F0020F1A9001DCFB
:10104400E0FFEF60069001DCE014F00581900007FA
:10105400E0FFEF75F00FA424DDF582E43401F5839D
:10106400E0FF8F08C3E508648094804039AF08EF3F
:101074003395E0FE900007E0FDED75F01EA42421F9
:10108400F582E43402F583E5822FF582E5833EF5AB
:1010940083E0FF7877E6FEA806AE08E82EF8A607F8
:1010A4001508058180BE1581900007E0FFEF75F0FB
:1010B4000FA424D9F582E43401F5837401F090007F
:1010C40003E0FCA3E0FDA3E0FEA3E0FF7B017A00C4
:1010D40079007800EF2BFFEE3AFEED39FDEC38FC99
:0810E40090000312025AD2AF82
:1010EC00D007D006D005D004D003D002D001D00058
:0B10FC00D0D0D082D083D0F0D0E03202
:102505008F0E900007E0FFEF75F00FA424DCF58235
:09251500E43401F583E50EF02227
:10237500900007E0FFEF75F00FA424D9F582E4344F
:1023850001F583E0FFEFB40118900007E0FFEF755A
:10239500F00FA424D9F582E43401F583E4F07F013C
:0423A500227F002271
:0B257C007B017A027921AF018F8122E0
:1003D3005468657265206172652022002220746171
:1003E300736B73206172652072756E6E696E672E12
:1003F300000920437075206861732072756E202296
:1004030000222074696D65730D0A007069640970B8
:1004130072696F72697479096370755F75736509C1
:100423006E616D650D0A0D0A000909000D0A00547D
:100433006865207461736B20646F6E277420657820
:1004430069740D0A00546865207461736B206861D8
:1004530073206265656E206B696C6C6564203A205D
:100463007069646E756D203D200054686520746169
:10047300736B20796F752073656C6563742063619A
:100483006E2774206265206B696C6C65640D0A00CD
:10049300546865207461736B2068617320626565BD
:1004A3006E2065786973740D0A007461736B310093
:1004B300546865207461736B20686173206265659D
:1004C3006E2063726561746564203A207461736B96
:1004D300206E616D65203D200069646C6500746168
:1004E300736B3200546865207461736B20796F7588
:1004F3002073656C6563742063616E277420626585
:1005030020637265617465640D0A0023000D0A544B
:100513006F6F206D75636820776F7264730D0A00C7
:10052300506C6561736520696E70757420796F75A1
:100533007220636F6D6D6F6E6420616761696E20F9
:10054300616E6420646F6E742774206D6F72652012
:100553007468616E203235340D0A230008200800C8
:100563006B696C6C006E65770070730068656C7006
:10057300006578697400003A20756E646566696E7B
:10058300656420636F6D6D6F6E640D0A00312E70AC
:10059300733A09646973706C6179207468652072B9
:1005A300756E6E696E67207461736B730D0A00005C
:1005B3000000000000000000000000000000000038
:1005C3000000000000000000000000000000000028
:1005D3000000000000000000000000000000000018
:1005E3000000000000000000000000000000000008
:1005F30000322E6B696C6C3A096B696C6C20746801
:1006030065207461736B20796F752068617665204E
:1006130073656C65637465640D0A096578616D7053
:100623006C653A0D0A09096B696C6C2034202D2D19
:100633002D6B696C6C207468652034746820746158
:10064300736B0D0A000000000000000000000000B2
:100653000000000000332E6E65773A09637265610E
:1006630074652061207461736B0D0A096578616D8F
:10067300706C653A0D0A09096E6577207461736BB6
:1006830032202D2D2D637265617465207468652099
:100693007461736B206E616D656420277461736B85
:1006A30032270D0A000000000000000000000000D7
:1006B300000000000000000000342E657869743AE1
:1006C300096578697420616C6C20746869732073A0
:1006D300797374656D0D0A000000000000000000CE
:1006E3000000000000000000000000000000000007
:1006F30000000000000000000000000000000000F7
:1007030000000000000000000000000000000000E6
:1007130000000000000000000000000000000000D6
:1007230000000000000000000000000000000000C6
:1007330000000000000000000000000000000000B6
:1007430000000000000000000000000000000000A6
:100753000000000000000000000000000000000096
:100763000000000000000000000000000000000086
:100773000000000000000000000000000000000076
:010783000075
:092329004102C8004202C6000096
:100003009002C87401F09002C8E0FFEF60077F021E
:0600130012250580F12218
:060784008B098A0A890BB3
:10078A009002C3E4F09002C4E4F07BFF7A0379D3C9
:10079A0012228F900002E0FFEF2430FF1225537BD4
:1007AA00FF7A0379DF12228F7BFF7A0379F4122210
:1007BA008F7B007AE4790B7854900003E0FCA3E085
:1007CA00FDA3E0FEA3E0FF12018EEF2430FF122505
:1007DA00537B007ACA799A783B900003E0FCA3E045
:1007EA00FDA3E0FEA3E0FF12018EAC00AD01AE0254
:1007FA00AF037B007ACA799A783B12018EEF2430D4
:10080A00FF1225537B007AE179F57805900003E021
:10081A00FCA3E0FDA3E0FEA3E0FF12018EAC00AD55
:10082A0001AE02AF037B807A967998780012018E26
:10083A00EF2430FF1225537B807A967998780090BE
:10084A000003E0FCA3E0FDA3E0FEA3E0FF12018E9B
:10085A00AC00AD01AE02AF037B407A42790F78005B
:10086A0012018EEF2430FF1225537B407A42790F12
:10087A007800900003E0FCA3E0FDA3E0FEA3E0FF04
:10088A0012018EAC00AD01AE02AF037BA07A86796D
:10089A0001780012018EEF2430FF1225537BA07AD3
:1008AA008679017800900003E0FCA3E0FDA3E0FE56
:1008BA00A3E0FF12018EAC00AD01AE02AF037B10C4
:1008CA007A277900780012018EEF2430FF1225531F
:1008DA007B107A2779007800900003E0FCA3E0FD02
:1008EA00A3E0FEA3E0FF12018EAC00AD01AE02AFA1
:1008FA00037BE87A037900780012018EEF2430FF37
:10090A001225537BE87A0379007800900003E0FC13
:10091A00A3E0FDA3E0FEA3E0FF12018EAC00AD014F
:10092A00AE02AF037B647A007900780012018EEF81
:10093A002430FF1225537B647A00790078009000F6
:10094A0003E0FCA3E0FDA3E0FEA3E0FF12018EACEE
:10095A0000AD01AE02AF037B0A7A0079007800127B
:10096A00018EEF2430FF1225537B0A7A0079007832
:10097A0000900003E0FCA3E0FDA3E0FEA3E0FF1269
:10098A00018EAC00AD01AE02AF03EF2430FF122599
:10099A00537BFF7A04790412228F7BFF7A04790E43
:1009AA0012228F9002C3E4F09002C3E0FFEFC394D7
:1009BA00054003020B209002C3E0FF74017E00A8E9
:1009CA0007088005C333CE33CED8F9FFEE3395E05E
:1009DA00FDFC9001D2E0F8A3E0F9A3E0FAA3E0FB62
:1009EA00EF5BFFEE5AFEED59FDEC58FCEC4D4E4F15
:1009FA007003020B179002C3E0FFEF75F00FA424F7
:100A0A00DEF582E43401F583E0FCA3E0FDA3E0FE19
:100A1A00A3E0FF7B647A007900780012010390005A
:100A2A0003E0F8A3E0F9A3E0FAA3E0FB12018E9039
:100A3A0002C4EFF09002C3E0FFEF2430FF12255307
:100A4A007F091225539002C3E0FFEF75F00FA4242B
:100A5A00DAF582E43401F583E0FFEF75F06484FF90
:100A6A00EF2430FF1225539002C3E0FFEF75F00F19
:100A7A00A424DAF582E43401F583E0FFEF75F0642B
:100A8A0084AFF0EF75F00A84FFEF2430FF1225538C
:100A9A009002C3E0FFEF75F00FA424DAF582E43484
:100AAA0001F583E0FFEF75F00A84AFF0EF2430FF21
:100ABA001225537BFF7A04792C12228F9002C4E00C
:100ACA00FFEF75F00A84FFEF2430FF1225539002DE
:100ADA00C4E0FFEF75F00A84AFF0EF2430FF12256F
:100AEA00537F091225539002C3E0FFEF75F00FA45C
:100AFA0024D6F582E43401F583E0FBA3E0FAA3E00F
:100B0A00F912228F7BFF7A04792F12228F9002C367
:060B1A00E004F00209B244
:010B200022B2
:101FF0008B098A0A890B90011EE0FFEF643260486A
:1020000090011EE0FFEF6433603E90011EE0FFEFA1
:102010006430603490011EE0FFEF24D0FF121C6A90
:10202000EF600A7BFF7A04793212228F227BFF7ADB
:1020300004794812228F90011EE0FF1225537BFF86
:102040007A04792F12228F227BFF7A04796D122273
:022050008F22DD
:0614E2008B098A0A890B48
:1014E8009002C3E4F09002C3E0FFEFC39405400309
:1014F8000215839002C3E0FF74017E00A8070880EC
:1015080005C333CE33CED8F9FFEE3395E0FDFC901A
:1015180001D2E0F8A3E0F9A3E0FAA3E0FBEF5BFF58
:10152800EE5AFEED59FDEC58FCEC4D4E4F60437BF6
:10153800017A01791EC003C002C0019002C3E0FF16
:10154800EF75F00FA424D6F582E43401F583E0FBAF
:10155800A3E0FAA3E0F98B0F8A108911D001D00219
:10156800D0031220A3EF700A7BFF7A04799312222A
:101578008F229002C3E004F00214ED7BFF7A047915
:10158800ADC003C002C0017B017A01791E8B0F8AAE
:10159800108911D001D002D0031220A3EF703B7B39
:1015A800FF7A257931AC02AD017BFF7A0479AD8BE6
:1015B800118A1289137B007A007F021213107BFFB5
:1015C8007A0479B312228F7B017A01791E12228F55
:1015D8007BFF7A04792F12228F227BFF7A0479DC31
:1015E800C003C002C0017B017A01791E8B0F8A10EB
:1015F8008911D001D002D0031220A3EF703B7BFFEA
:101608007A25798FAC02AD017BFF7A0479DC8B11E6
:101618008A1289137B007A007F041213107BFF7AE9
:101628000479B312228F7B017A01791E12228F7BF3
:10163800FF7A04792F12228F227BFF7A0479E1C086
:1016480003C002C0017B017A01791E8B0F8A1089C1
:1016580011D001D002D0031220A3EF703B7BFF7A98
:10166800257942AC02AD017BFF7A0479E18B118ABE
:101678001289137B007A007F031213107BFF7A0410
:1016880079B312228F7B017A01791E12228F7BFF98
:101698007A04792F12228F227BFF7A0479E71222AB
:0116A8008FB2
:0116A900221E
:061DF4008B098A0A890B2D
:101DFA00750C00750D00C2AF900009E004F0700682
:101E0A00900008E004F0AF0C75F064EFA42490F59C
:101E1A0082E5F03405F583E493FFEF6051AF0DAE30
:101E2A000C75F064EEA42490F582E5F03405F58390
:101E3A00E5822FF582E43583F583E493FFEF60278B
:101E4A00AF0DAE0C75F064EEA42490F582E5F03483
:101E5A0005F583E5822FF582E43583F583E493FF64
:101E6A00122553050D80B6050C750D008098D2AF6A
:0E1E7A00900009E024FFF0900008E034FFF033
:011E88002237
:0F2562008B098A0A890BC2AFC28EC2AB80FE22E0
:10253100C29175A006B2877F647E001223DC80F50C
:012541002277
:03258F0080FE22A9
:10254200C29175A006B2867F327E001223DC80F52E
:012552002266
:101979007BFF7A05790E12228F1225719002C6E03B
:10198900FCA3E0FDAE05740A2EF582E43400F5836C
:10199900EFF09002C6E0FEA3E0FF740A2FF582E49F
:1019A9003400F583E0FFEF700B7F02122505D28F1B
:1019B90080C780C59002C6E0FEA3E0FFC3EF94FE96
:1019C900EE9400401C7BFF7A05791012228F7BFF71
:1019D9007A05792312228F9002C6E4F0A3E4F080FD
:1019E900989002C6E0FEA3E0FF740A2FF582E43462
:1019F90000F583E0FFEFB4082E9002C6E0FEA3E0F5
:101A0900FFD3EF9400EE940050030219829002C7AD
:101A1900E024FFF09002C6E034FFF07BFF7A0579FD
:101A29005F12228F0219829002C6E0FEA3E0FF74C2
:101A39000A2FF582E43400F583E0FFEFB40D279017
:101A490002C6E0FEA3E0FF740A2FF582E43400F534
:101A590083E4F09001F9E4F01200039002C6E4F087
:101A6900A3E4F00219829002C6E0FEA3E0FF740A23
:101A79002FF582E43400F583E0FF1225539002C765
:0E1A8900E004F070069002C6E004F00219823C
:011A9700222C
:1016AA007BFF7A04792F12228F7B017A00790AC094
:1016BA0003C002C0017B017A01790A8B0C8A0D8969
:1016CA000ED001D002D003121A987BFF7A057963F3
:1016DA00C003C002C0017B017A01790A8B0F8A100C
:1016EA008911D001D002D0031220A3EF700C7B0025
:1016FA007A007900121FF00217F87BFF7A057968E1
:10170A00C003C002C0017B017A01790A8B0F8A10DB
:10171A008911D001D002D0031220A3EF700C7B00F4
:10172A007A0079001214E20217F87BFF7A05796CC5
:10173A00C003C002C0017B017A01790A8B0F8A10AB
:10174A008911D001D002D0031220A3EF700C7B00C4
:10175A007A0079001207840217F87BFF7A05796FFD
:10176A00C003C002C0017B017A01790A8B0F8A107B
:10177A008911D001D002D0031220A3EF700B7B0095
:10178A007A007900121DF480657BFF7A057974C0AE
:10179A0003C002C0017B017A01790A8B0F8A108982
:1017AA0011D001D002D0031220A3EF700B7B007A74
:1017BA0000790012256280367BFF7A057979C003A9
:1017CA00C002C0017B017A01790A8B0F8A10891144
:1017DA00D001D002D0031220A3EF60127B017A015C
:1017EA00790A12228F7BFF7A05797A12228F7BFF80
:1017FA007A05790E12228F9002C8E4F09001F974EA
:08180A0001F0D28F0216AA22A0
:0A213E008B378A3889398C3A8D3BC3
:102148009002CBE4F0A3E4F09002CBE0FEA3E0FF22
:10215800C3EF953BEE953A5026AB37AA38A939908C
:1021680002CBE0FEA3E0FF8F828E83E4120076901C
:0F21780002CCE004F070069002CBE004F080C9C6
:012187002235
:1020A3008B0C8A0D890EAB0CAA0DA90E12001EFF14
:1020B300EF700DAB0FAA10A91112001EFFEF602BDA
:1020C300AB0F0511E511AA107002051014F91200E7
:1020D3001EFFAB0C050EE50EAA0D7002050D14F9DB
:0E20E30012001EFEEE6F60BE7F01227F002203
:061A98008B098A0A890B8C
:101A9E00750F00751000751101AB09AA0AA90B127A
:101AAE00001EFFEFB420037F0122AB09AA0AA90B87
:101ABE0012001EFFEF7003021B4BAB09AA0AA90B03
:101ACE0012001EFFEFB4202AAF0F7E14EF8EF0A48B
:101ADE00FFAEF0AB0CAA0DA90EE92FF9EA3EFAAF54
:101AEE00107E00E92FF9EA3EFAE412006475110047
:101AFE00803BE5117008050F751000751101AB09DB
:101B0E00AA0AA90B12001EFDAF0F7E14EF8EF0A4D1
:101B1E00FFAEF0AB0CAA0DA90EE92FF9EA3EFAAF13
:101B2E00107E00E92FF9EA3EFAED120064740125E9
:101B3E000BF50BE4350AF50A0510021AB8AF0F7E45
:101B4E0014EF8EF0A4FFAEF0AB0CAA0DA90EE92F88
:101B5E00F9EA3EFAAF107E00E92FF9EA3EFAE412F6
:101B6E000064AF0F7E14EF8EF0A4FFAEF0AB0CAAA4
:101B7E000DA90EE92FF9EA3EFA758214758300E479
:051B8E001200767F004B
:011B9300222F
:101F89008B218A228923AB27AA28A929C003C00249
:101F9900C001AB21AA22A92375820375830012030C
:101FA90012AB24AA25A926C003C002C001AB21AAED
:101FB90022A9231202C3AB21AA22A923C003C0026A
:101FC900C001AB24AA25A9267582037583001203D3
:101FD90012AB21AA22A923C003C002C001AB27AAC0
:071FE90028A9291202C322FE
:10233E008B318A328933AB31AA32A933C003C00242
:10234E00C001AB34AA35A9361202A38B248A258983
:10235E0026AB34AA35A9368B278A288929D001D0F5
:07236E0002D003121F8922B7
:10246700C0F9A4B0999282F88090FFF0F1F2F3F4EA
:10247700F501020408102040803F065B4F666D7D22
:0D248700077F6F777C395E7971FEFDFBF7F2
:0B2332004402B7000000004102BB00A5
:080B21008F3F8E3E8D3D8C3CA0
:100B29009002CDE4F09002B7E0FCA3E0FDA3E0FE63
:100B3900A3E0FFAB3FAA3EA93DA83CC31202367011
:100B490003020D4AAF3FAE3EAD3DAC3C9002B71239
:100B5900025AE5407003020C28AF3FAE3EAD3DACF2
:100B69003C7810120247EF540FFFEE5400FEED548B
:100B790000FDEC5400FC9002BCEFF0AF3FAE3EAD7F
:100B89003DAC3C780E120247EF540FFFEE5400FEC5
:100B9900ED5400FDEC5400FC9002BDEFF0AF3FAE08
:100BA9003EAD3DAC3C780C120247EF540FFFEE54BA
:100BB90000FEED5400FDEC5400FC9002BEEFF0AFD6
:100BC9003FAE3EAD3DAC3C7808120247EF540FFFF3
:100BD900EE5400FEED5400FDEC5400FC9002BFEF12
:100BE900F0AF3FAE3EAD3DAC3C7804120247EF5446
:100BF9000FFFEE5400FEED5400FDEC5400FC900292
:100C0900C0EFF0E53F540FFFE53E5400FEE53D54CB
:100C190000FDE53C5400FC9002C1EFF0020D4A7B57
:100C2900A07A8679017800AF3FAE3EAD3DAC3C126B
:100C3900018E9002BCEFF07BA07A8679017800AF33
:100C49003FAE3EAD3DAC3C12018EAC00AD01AE02F3
:100C5900AF037B107A277900780012018E9002BDCC
:100C6900EFF07B107A2779007800AF3FAE3EAD3DBB
:100C7900AC3C12018EAC00AD01AE02AF037BE87A49
:100C8900037900780012018E9002BEEFF07BE87ABA
:100C99000379007800AF3FAE3EAD3DAC3C12018E0A
:100CA900AC00AD01AE02AF037B647A007900780035
:100CB90012018E9002BFEFF07B647A007900780010
:100CC900AF3FAE3EAD3DAC3C12018EAC00AD01AEC6
:100CD90002AF037B0A7A007900780012018E900234
:100CE900C0EFF07B0A7A0079007800AF3FAE3EADE5
:100CF9003DAC3C12018EAC00AD01AE02AF039002D7
:100D0900C1EFF09002CDE4F09002CDE0FFEFC39483
:100D190006502E9002CDE0FF74BC2FF582E4340218
:100D2900F583E0FFEF701A9002CDE0FF74BC2FF558
:100D390082E43402F583740AF09002CDE004F08075
:100D4900C79002BBE0FFEFC3940640059002BBE4E5
:100D5900F09002BBE0FFEF12036B0D79000DA601C5
:100D69000DD3020E00030E2D040E5A0500000E8647
:100D790090247AE493FF8F8075A0C0C2C2D2C27555
:100D890080FF75A0E0C2C29002BCE0FFEF9024672B
:100D990093FF8F80D2C29002BBE004F02290247BA3
:100DA900E493FF8F8075A0C0C2C2D2C27580FF755F
:100DB900A0E0C2C29002BDE0FFEF90246793FF8FCD
:100DC90080D2C29002BBE004F02290247CE493FF1D
:100DD9008F8075A0C0C2C2D2C27580FF75A0E0C263
:100DE900C29002BEE0FFEF90246793FF8F80D2C2CA
:100DF9009002BBE004F02290247DE493FF8F80757C
:100E0900A0C0C2C2D2C27580FF75A0E0C2C2900262
:100E1900BFE0FFEF90246793FF8F80D2C29002BB9F
:100E2900E004F02290247EE493FF8F8075A0C0C275
:100E3900C2D2C27580FF75A0E0C2C29002C0E0FFB5
:100E4900EF90246793FF8F80D2C29002BBE004F039
:100E59002290247FE493FF8F8075A0C0C2C2D2C2C2
:100E69007580FF75A0E0C2C29002C1E0FFEF902437
:0D0E79006793FF8F80D2C29002BBE004F0AF
:010E86002249
:101107008E2A8F2B8C2C8D2D8B2E8A2F8930C3E521
:101117002B952DFFE52A952CFEEF4E700302121337
:10112700AE2AAF2BE4FCFD7BA07A8679017800120A
:1011370021D1AB2EAA2FA930EF120064AE2AAF2B14
:10114700E4FCFD7BA07A86790178001221D1AC00FE
:10115700AD01AE02AF037B107A2779007800122128
:10116700D1AB2EAA2FA930758201758300EF12002B
:1011770076AE2AAF2B7C277D101200987E037FE87E
:10118700CFCDCFCECCCE120098AB2EAA2FA93075DB
:101197008202758300EF120076AE2AAF2B7C037DA7
:1011A700E81200987E007F64CFCDCFCECCCE120060
:1011B70098AB2EAA2FA930758203758300EF120012
:1011C70076AE2AAF2B7C007D641200987E007F0AE2
:1011D700CFCDCFCECCCE120098AB2EAA2FA930758B
:1011E7008204758300EF120076AE2AAF2B7C007D58
:1011F7000A120098AF05AB2EAA2FA9307582057584
:101207008300EF120076852A2C852B2DAB2EAA2F73
:10121700A93012001EFFEF90246793FF8F8043A031
:1012270007902472E493FFEF52A07F017E00122201
:10123700CAAB2EAA2FA93075820175830012003719
:10124700FFEF90246793FF8F8043A007902473E4F8
:1012570093FFEF52A07F017E001222CAAB2EAA2F66
:10126700A930758202758300120037FFEF9024675B
:1012770093FF8F8043A007902474E493FFEF52A05D
:101287007F017E001222CAAB2EAA2FA930758203D6
:10129700758300120037FFEF90246793FF8F804319
:1012A700A007902475E493FFEF52A07F017E001200
:1012B70022CAAB2EAA2FA9307582047583001200AB
:1012C70037FFEF90246793FF8F8043A00790247622
:1012D700E493FFEF52A07F017E001222CAAB2EAA31
:1012E7002FA930758205758300120037FFEF902410
:1012F7006793FF8F8043A007902477E493FFEF5213
:09130700A07F017E001222CA221F
:081812008F178E168D158C1442
:10181A007BA07A8679017800AF17AE16AD15AC14A5
:10182A0012018E8F197BA07A8679017800AF17AEE4
:10183A0016AD15AC1412018EAC00AD01AE02AF03A9
:10184A007B107A277900780012018E8F1A7B107A22
:10185A002779007800AF17AE16AD15AC1412018EB9
:10186A00AC00AD01AE02AF037BE87A0379007800E1
:10187A0012018E8F1B7BE87A0379007800AF17AECE
:10188A0016AD15AC1412018EAC00AD01AE02AF0359
:10189A007B647A007900780012018E8F1C7B647A4F
:1018AA000079007800AF17AE16AD15AC1412018E90
:1018BA00AC00AD01AE02AF037B0A7A007900780072
:1018CA0012018E8F1D7B0A7A0079007800AF17AE5D
:1018DA0016AD15AC1412018EAC00AD01AE02AF0309
:1018EA008F1EE51812036B190700191A01192D0228
:1018FA0019400319530419660500001978902472D7
:10190A00E493FF8FA0AF19EF90246793FF8F802293
:10191A00902473E493FF8FA0AF1AEF90246793FF8C
:10192A008F8022902474E493FF8FA0AF1BEF902442
:10193A006793FF8F8022902475E493FF8FA0AF1CDA
:10194A00EF90246793FF8F8022902476E493FF8F91
:10195A00A0AF1DEF90246793FF8F8022902477E435
:0E196A0093FF8FA0AF1EEF90246793FF8F8036
:01197800224C
:03000000021E8954
:0C1E8900787FE4F6D8FD758177021ED04A
:10001E00BB010689828A83E0225002E722BBFE02E0
:09002E00E32289828A83E4932213
:10003700BB010CE58229F582E5833AF583E022507E
:1000470006E92582F8E622BBFE06E92582F8E222C8
:0D005700E58229F582E5833AF583E49322E2
:10006400BB010689828A83F0225002F722BBFE017B
:02007400F32275
:10007600F8BB010DE58229F582E5833AF583E8F0C0
:10008600225006E92582C8F622BBFE05E92582C86C
:02009600F22254
:10009800BC000BBE0029EF8DF084FFADF022E4CC4C
:1000A800F875F008EF2FFFEE33FEEC33FCEE9DEC15
:1000B800984005FCEE9DFE0FD5F0E9E4CEFD22ED5B
:1000C800F8F5F0EE8420D21CFEADF075F008EF2FA5
:1000D800FFED33FD4007985006D5F0F222C398FD96
:0500E8000FD5F0EA2233
:1000ED00A3F8E0C5F025F0F0E582158270021583C6
:0600FD00E0C838F0E82223
:10010300E88FF0A4CC8BF0A42CFCE98EF0A42CFC9B
:100113008AF0EDA42CFCEA8EF0A4CDA8F08BF0A419
:100123002DCC3825F0FDE98FF0A42CCD35F0FCEB78
:100133008EF0A4FEA9F0EB8FF0A4CFC5F02ECD393D
:0F014300FEE43CFCEAA42DCE35F0FDE43CFC22AA
:1001520075F008758200EF2FFFEE33FECD33CDCC64
:1001620033CCC58233C5829BED9AEC99E5829840E7
:100172000CF582EE9BFEED9AFDEC99FC0FD5F0D6C4
:10018200E4CEFBE4CDFAE4CCF9A88222B800C1B9EE
:100192000059BA002DEC8BF084CFCECDFCE5F0CB2C
:1001A200F97818EF2FFFEE33FEED33FDEC33FCEB65
:1001B20033FB10D703994004EB99FB0FD8E5E4F920
:1001C200FA227818EF2FFFEE33FEED33FDEC33FC0D
:1001D200C933C910D7059BE99A4007EC9BFCE99A01
:1001E200F90FD8E0E4C9FAE4CCFB2275F010EF2F46
:1001F200FFEE33FEED33FDCC33CCC833C810D70746
:100202009BEC9AE899400AED9BFDEC9AFCE899F880
:0E0212000FD5F0DAE4CDFBE4CCFAE4C8F92213
:1021D100C2D5E830E70FB2D5E4C39BFBE49AFAE439
:1021E10099F9E498F8EC30E717B2D51222071201F9
:1021F1008EE4C39BFBE49AFAE499F9E498F880032E
:1022010012018E30D50DE4C39FFFE49EFEE49DFDD7
:04221100E49CFC222B
:10022000EB9FF5F0EA9E42F0E99D42F0EC6480C855
:0602300064809845F022F5
:10023600EB9FF5F0EA9E42F0E99D42F0E89C45F01E
:010246002295
:10024700E8600FECC313FCED13FDEE13FEEF13FF95
:03025700D8F122B9
:0C025A00ECF0A3EDF0A3EEF0A3EFF02217
:10026600A8828583F0D083D08212027D12027D128D
:10027600027D12027DE473E493A3C583C5F0C583B2
:10028600C8C582C8F0A3C583C5F0C583C8C582C8E2
:010296002245
:0C029700A42582F582E5F03583F5832272
:1002A300BB010789828A830203A35005E9F802038D
:1002B30091BBFE05E9F80203B589828A830203C76D
:1002C300BB011A89828A83D0F0D0E0F8D0E0F9D05C
:1002D300E0FAD0E0FBE8C0E0C0F00203AC5016E95E
:1002E300F8D083D082D0E0F9D0E0FAD0E0FBC0822E
:1002F300C08302039ABBFE16E9F8D083D082D0E014
:0F030300F9D0E0FAD0E0FBC082C0830203BE2233
:10031200BB0120E58229F582E5833AF583D0F0D04E
:10032200E0F8D0E0F9D0E0FAD0E0FBE8C0E0C0F0BD
:100332000203AC5018E92582F8D083D082D0E0F9CC
:10034200D0E0FAD0E0FBC082C08302039ABBFE1861
:10035200E92582F8D083D082D0E0F9D0E0FAD0E06B
:09036200FBC082C0830203BE222D
:10036B00D083D082F8E4937012740193700DA3A321
:10037B0093F8740193F5828883E473740293686035
:06038B00EFA3A3A380DF35
:101E9500021D34E493A3F8E493A34003F68001F212
:101EA50008DFF48029E493A3F85407240CC8C3334E
:101EB500C4540F4420C8834004F456800146F6DF1D
:101EC500E4800B0102040810204080902304E47E86
:101ED500019360BCA3FF543F30E509541FFEE49312
:101EE500A360010ECF54C025E060A840B8E493A3D9
:101EF500FAE493A3F8E493A3C8C582C8CAC583CA04
:101F0500F0A3C8C582C8CAC583CADFE9DEE780BEBB
:01233D00009F
:09039100E6FB08E6FA08E6F92291
:09039A00EBF608EAF608E9F62288
:0903A300E0FBA3E0FAA3E0F9225B
:0903AC00EBF0A3EAF0A3E9F02252
:0903B500E2FB08E2FA08E2F92279
:0903BE00EBF208EAF208E9F22270
:0C03C700E493FB740193FA740293F92292
:00000001FF
