:100F99007DF47C01EF1FAA0670011E4A6010ED1D49
:0E0FA900AA0470011C4A70F67C017DF480E6FB
:010FB7002217
:100E9700EF1FAC0670011E4C601F00000000000031
:100EA700000000000000000000000000000000003B
:0A0EB7000000000000000080D722B8
:100F5700AB07AA06758700E58720E51475C7807576
:100F6700C5028AC38BC48DC275C65A75C6A5000053
:010F77002257
:040F3400AB07AA0657
:100F3800758700E58720E51475C78075C5018AC3E4
:0E0F48008BC475C65A75C6A50000ADC2AF05B4
:010F56002278
:100F7800AD07AC06758700E58720E51475C7807551
:100F8800C5038CC3AF058FC475C65A75C6A50000C6
:010F98002236
:10042B00EFB40A00400302072190043BF82828731D
:10043B0002045902049B0204DD02051F020561023E
:10044B0005A30205E50206270206690206C6ED149E
:10045B00601E14602F14603324037034E5B730E74B
:10046B0007E5B76480FF8002AFB78FB7C2BF8020AC
:10047B00E5B730E707E5B76480FF8002AFB78FB70A
:10048B00D2BF800C43B780C2BF800543B780D2BFB9
:10049B00ED14601E14602F14603324037034E5B721
:1004AB0030E607E5B76440FF8002AFB78FB7C2BE37
:1004BB008020E5B730E607E5B76440FF8002AFB7B1
:1004CB008FB7D2BE800C43B740C2BE800543B74046
:1004DB00D2BEED14601E14602F14603324037034ED
:1004EB00E5B730E507E5B76420FF8002AFB78FB7FC
:1004FB00C2BD8020E5B730E507E5B76420FF800279
:10050B00AFB78FB7D2BD800C43B720C2BD800543B8
:10051B00B720D2BDED14601E14602F14603324037A
:10052B007034E5B730E407E5B76410FF8002AFB76E
:10053B008FB7C2BC8020E5B730E407E5B76410FF86
:10054B008002AFB78FB7D2BC800C43B710C2BC8050
:10055B000543B710D2BCED14601E14602F1460332A
:10056B0024037034E5B730E307E5B76408FF800276
:10057B00AFB78FB7C2BB8020E5B730E307E5B764F1
:10058B0008FF8002AFB78FB7D2BB800C43B708C24E
:10059B00BB800543B708D2BBED14601E14602F144B
:1005AB00603324037034E5B730E207E5B76404FF2A
:1005BB008002AFB78FB7C2BA8020E5B730E207E54C
:1005CB00B76404FF8002AFB78FB7D2BA800C43B7C2
:1005DB0004C2BA800543B704D2BAED14601E14608E
:1005EB002F14603324037034E5B730E107E5B764AB
:1005FB0002FF8002AFB78FB7C2B98020E5B730E1F9
:10060B0007E5B76402FF8002AFB78FB7D2B9800C92
:10061B0043B702C2B9800543B702D2B9ED14601ECD
:10062B0014602F14603324037034E5B730E007E512
:10063B00B76401FF8002AFB78FB7C2B88020E5B7B0
:10064B0030E007E5B76401FF8002AFB78FB7D2B8D0
:10065B00800C43B701C2B8800543B701D2B8ED1483
:10066B00602C14603B14604D2403704FE5B630E1F1
:10067B0007E5B66402FF8002AFB68FB6E5B530E191
:10068B0007E5B56402FF8002AFB58FB5802DE5B6E7
:10069B0030E107E5B66402FF8002AFB68FB6801873
:1006AB0043B602E5B530E107E5B56402FF8002AF62
:1006BB00B58FB5800643B60243B502ED14602B141B
:1006CB00603A14604B2403704DE5B630E007E5B794
:1006DB006401FF8002AFB68FB6E5B530E007E5B534
:1006EB006401FF8002AFB58FB522E5B630E007E5B8
:1006FB00B76401FF8002AFB68FB6801743B601E532
:10070B00B530E007E5B56401FF8002AFB58FB522C8
:07071B0043B60143B50122C2
:100003008B2AA905EF1470030200F4147003020194
:10001300C114700302028E14700302035B24046094
:100023000302042A74017E00A801088005C333CEAD
:1000330033CED8F9FFAD94EF5D603EE52A75F080CD
:10004300A4AEF07807CEA2E713CE13D8F8A8010820
:100053008005C333CE33CED8F9FDAC0674017E00E0
:10006300A801088005C333CE33CED8F9FFAB94EF94
:100073006BFFEC4EED4FFF8024E52A75F080A4AEB4
:10008300F07807CEA2E713CE13D8F8A801088005AD
:10009300C333CE33CED8F9FFAD94ED4FFF8F9474B5
:1000A300017E00A801088005C333CE33CED8F9FF03
:1000B300AD93EF5D6021AD93EEFCEF6DFDE52AC3DB
:1000C300137E00A801088005C333CE33CED8F9FFD1
:1000D300EE4CEF4DFF8018E52AC3137E00A80108FC
:1000E3008005C333CE33CED8F9FFAD93ED4FFF8FE9
:1000F3009374017E00A801088005C333CE33CED8A4
:10010300F9FFAD92EF5D603EE52A75F080A4AEF095
:100113007807CEA2E713CE13D8F8A801088005C349
:1001230033CE33CED8F9FDAC0674017E00A80108A6
:100133008005C333CE33CED8F9FFAB92EF6BFFEC20
:100143004EED4FFF8024E52A75F080A4AEF07807CA
:10015300CEA2E713CE13D8F8A801088005C333CE87
:1001630033CED8F9FFAD92ED4FFF8F9274017E002D
:10017300A801088005C333CE33CED8F9FFAD91EF84
:100183005D6021AD91EEFCEF6DFDE52AC3137E00AA
:10019300A801088005C333CE33CED8F9FFEE4CEF68
:1001A3004DFF8018E52AC3137E00A801088005C30C
:1001B30033CE33CED8F9FFAD91ED4FFF8F9174015C
:1001C3007E00A801088005C333CE33CED8F9FFAD36
:1001D30096EF5D603EE52A75F080A4AEF07807CE19
:1001E300A2E713CE13D8F8A801088005C333CE3392
:1001F300CED8F9FDAC0674017E00A801088005C3C2
:1002030033CE33CED8F9FFAB96EF6BFFEC4EED4F09
:10021300FF8024E52A75F080A4AEF07807CEA2E72C
:1002230013CE13D8F8A801088005C333CE33CED834
:10023300F9FFAD96ED4FFF8F9674017E00A801087C
:100243008005C333CE33CED8F9FFAD95EF5D602182
:10025300AD95EEFCEF6DFDE52AC3137E00A8010802
:100263008005C333CE33CED8F9FFEE4CEF4DFF807C
:1002730018E52AC3137E00A801088005C333CE33D3
:10028300CED8F9FFAD95ED4FFF8F9574017E00A891
:1002930001088005C333CE33CED8F9FFADB2EF5D8D
:1002A300603EE52A75F080A4AEF07807CEA2E7138E
:1002B300CE13D8F8A801088005C333CE33CED8F9BE
:1002C300FDAC0674017E00A801088005C333CE335C
:1002D300CED8F9FFABB2EF6BFFEC4EED4FFF8024AE
:1002E300E52A75F080A4AEF07807CEA2E713CE130B
:1002F300D8F8A801088005C333CE33CED8F9FFADB3
:10030300B2ED4FFF8FB274017E00A801088005C3D0
:1003130033CE33CED8F9FFADB1EF5D6021ADB1EE91
:10032300FCEF6DFDE52AC3137E00A801088005C319
:1003330033CE33CED8F9FFEE4CEF4DFF8018E52ACC
:10034300C3137E00A801088005C333CE33CED8F98A
:10035300FFADB1ED4FFF8FB174017E00A80108809E
:1003630005C333CE33CED8F9FFADB4EF5D603EE5C0
:100373002A75F080A4AEF07807CEA2E713CE13D887
:10038300F8A801088005C333CE33CED8F9FDAC06F7
:1003930074017E00A801088005C333CE33CED8F99B
:1003A300FFABB4EF6BFFEC4EED4FFF8024E52A75F6
:1003B300F080A4AEF07807CEA2E713CE13D8F8A846
:1003C30001088005C333CE33CED8F9FFADB4ED4F6A
:1003D300FF8F9474017E00A801088005C333CE33D8
:1003E300CED8F9FFADB3EF5D6021ADB3EEFCEF6D99
:1003F300FDE52AC3137E00A801088005C333CE336D
:10040300CED8F9FFEE4CEF4DFF801AE52AC3137ED9
:1004130000AD01A805088005C333CE33CED8F9FF5C
:08042300ADB3ED4FFF8F9322F2
:100FEE000A08C0F9A4B0999282F880900612000106
:040FFE0002030405E1
:1008E7008E208F218C228D238B248A258926C3E590
:1008F700219523FFE52095224F70030209DBAF21E5
:10090700E4FCFD7BA07A867901F8120D25AB24AAB9
:1009170025A926EF120768AE20AF21E4FCFD7BA0D6
:100927007A867901F8120D25AC00AD01AE02AF034E
:10093700E47B107A27F9F8120D25AB24AA25A926FE
:10094700900001EF12077AAE20AF217C277D1012AD
:1009570007AE7E037FE8CFCDCFCECCCE1207AEABAE
:1009670024AA25A926900002EF12077AAE20AF210C
:100977007C037DE81207AE7E007F64CFCDCFCECC5F
:10098700CE1207AEAB24AA25A926900003EF1207C3
:100997007AAE20AF217C007D641207AE7E007F0A0D
:1009A700CFCDCFCECCCE1207AEAB24AA25A92690A9
:1009B7000004EF12077AAE20AF217C007D0A1207F0
:1009C700AEAB24AA25A926900005ED12077A85204B
:1009D700228521238512A0AB24AA25A92612072246
:1009E7002408F8E6F5807F017E00120F998513A091
:1009F700AB24AA25A92690000112073B2408F8E694
:100A0700F5807F017E00120F998514A0AB24AA25DB
:100A1700A92690000212073B2408F8E6F5807F011B
:100A27007E00120F998515A0AB24AA25A926900050
:100A37000312073B2408F8E6F5807F017E00120FBA
:100A4700998516A0AB24AA25A92690000412073B76
:100A57002408F8E6F5807F017E00120F998517A01C
:100A6700AB24AA25A92690000512073B2408F8E61F
:090A7700F5807F017E00020F9959
:100A80008E188F198C1A8D1B8B1CC3E519951BFFB3
:100A9000E518951A4F7003020B70AF19E4FCFD7B4B
:100AA000A07A867901F8120D25AB1DAA1EA91FEFA9
:100AB000120768AE18AF19E4FCFD7BA07A867901B5
:100AC000F8120D25AC00AD01AE02AF03E47B107A45
:100AD00027F9F8120D25AB1DAA1EA91F900001EFE2
:100AE00012077AAE18AF197C277D101207AE7E036D
:100AF0007FE8CFCDCFCECCCE1207AEAB1DAA1EA9BC
:100B00001F900002EF12077AAE18AF197C037DE840
:100B10001207AE7E007F64CFCDCFCECCCE1207AE13
:100B2000AB1DAA1EA91F900003EF12077AAE18AFE3
:100B3000197C007D641207AE7E007F0ACFCDCFCE38
:100B4000CCCE1207AEAB1DAA1EA91F900004EF1257
:100B5000077AAE18AF197C007D0A1207AEAB1DAA4A
:100B60001EA91F900005ED12077A85181A85191B1A
:100B7000E51C14601E14602C14603A146048146064
:100B800056240570678512A0AB1DAA1EA91F120767
:100B90002280538513A0AB1DAA1EA91F900001122D
:100BA000073B80428514A0AB1DAA1EA91F9000021E
:100BB00012073B80318515A0AB1DAA1EA91F90000E
:100BC0000312073B80208516A0AB1DAA1EA91F900B
:100BD000000412073B800F8517A0AB1DAA1EA91F9A
:0D0BE00090000512073B2408F8E6F580227E
:100CD2008F828E83439850438E05438E10AF82AE2F
:100CE20083E4FCFDFB7AC27901F8C31208035005C4
:100CF200759CF7802BC3E58294C0E583941250055E
:100D0200759C30801BAE83AF82AB07AA06E4F9F86C
:100D12007F407E427D0FFC120D25EF04F404F59C0A
:030D2200D2AF222B
:100C79008F828E83439850438E05438E10AF82AE88
:100C890083E4FCFDFB7A96F9F8C312080350057555
:100C99009CFC8032C3E5829460E583940950057514
:100CA9009CB88022AE83AF82AB07AA06E4F9F8FFAD
:100CB9007E467D05FC120D25E47B02FAF9F8120D3A
:090CC90025EFF404F59CD2AF22E2
:081003008F993099FDC299227A
:100F0F008B278A288929AB27AA28A92912072260AB
:100F1F00130529E5297002052814F9120722FF127B
:050F2F00100380E22226
:100D6900D3EF9400EE94605020EF7805C333CE336F
:100D7900CED8F9FF7C007D0C1207AEC3E49FFFE4D7
:100D89009EAD07F58D8D8B8005E4F58DF58B758905
:070D990010D2ABD28ED2AFE5
:010DA0002230
:100E3B00D3EF9400EE9460501FEF7805C333CE339D
:100E4B00CED8F9FF7C007D0C1207AEC3E49FFFE404
:0D0E5B009EAD07F58D8D8B22E4F58DF58B96
:010E68002267
:100DA100D3EF9400EE94605020EF7805C333CE3337
:100DB100CED8F9FF7C007D0C1207AEC3E49FFFE49F
:100DC1009EAD07F58C8D8A8005E4F58CF58A7589D1
:070DD10001D2A9D28CD2AFC0
:010DD80022F8
:100E6900D3EF9400EE9460501FEF7805C333CE336F
:100E7900CED8F9FF7C007D0C1207AEC3E49FFFE4D6
:0D0E89009EAD07F58C8D8A22E4F58CF58A6C
:010E96002239
:100DD900D3EF9400EE946050197C007D0B12079CB0
:100DE9000D1207AEC3E49FFFE49EAD07F58D8D8B11
:100DF9008005E4F58DF58B758910D2ABD28ED2AF13
:010E090022C6
:100EC100D3EF9400EE946050187C007D0B12079CC8
:100ED1000D1207AEC3E49FFFE49EAD07F58D8D8B28
:060EE10022E4F58DF58B03
:010EE70022E8
:100E0A00D3EF9400EE946050197C007D0B12079C7E
:100E1A000D1207AEC3E49FFFE49EAD07F58C8D8AE1
:100E2A008005E4F58CF58A758901D2A9D28CD2AFF6
:010E3A002295
:100EE800D3EF9400EE946050187C007D0B12079CA1
:100EF8000D1207AEC3E49FFFE49EAD07F58C8D8A03
:060F080022E4F58CF58ADD
:010F0E0022C0
:100FB80046697273742073746570206F66203531CA
:0D0FC800206F7065726174696F6E210A0000
:100FD5007F007E96120CD27BFF7A0F79B8120F0F25
:090FE5007FF47E01120F9980EEE9
:03000000020BED03
:0C0BED00787FE4F6D8FD75812A020C34F4
:10072200BB010689828A83E0225002E722BBFE02D5
:09073200E32289828A83E4932208
:10073B00BB010CE58229F582E5833AF583E0225073
:10074B0006E92582F8E622BBFE06E92582F8E222BD
:0D075B00E58229F582E5833AF583E49322D7
:10076800BB010689828A83F0225002F722BBFE0170
:02077800F3226A
:10077A00F8BB010DE58229F582E5833AF583E8F0B5
:10078A00225006E92582C8F622BBFE05E92582C861
:02079A00F22249
:10079C00EF8DF0A4A8F0CF8CF0A428CE8DF0A42E71
:0207AC00FE222B
:1007AE00BC000BBE0029EF8DF084FFADF022E4CC2F
:1007BE00F875F008EF2FFFEE33FEEC33FCEE9DECF8
:1007CE00984005FCEE9DFE0FD5F0E9E4CEFD22ED3E
:1007DE00F8F5F0EE8420D21CFEADF075F008EF2F88
:1007EE00FFED33FD4007985006D5F0F222C398FD79
:0507FE000FD5F0EA2216
:100D2500C2D5E830E70FB2D5E4C39BFBE49AFAE4F9
:100D350099F9E498F8EC30E717B2D5120D5B120873
:100D450055E4C39BFBE49AFAE499F9E498F8800327
:100D550012085530D50DE4C39FFFE49EFEE49DFDCA
:040D6500E49CFC22EC
:10080300EB9FF5F0EA9E42F0E99D42F0EC6480C86C
:0608130064809845F0220C
:100BF900020FD5E493A3F8E493A34003F68001F22E
:100C090008DFF48029E493A3F85407240CC8C333FC
:100C1900C4540F4420C8834004F456800146F6DFCB
:100C2900E4800B0102040810204080900FEEE47E5E
:100C3900019360BCA3FF543F30E509541FFEE493C0
:100C4900A360010ECF54C025E060A840B8E493A387
:100C5900FAE493A3F8E493A3C8C582C8CAC583CAB2
:100C6900F0A3C8C582C8CAC583CADFE9DEE780BE6A
:0110020000ED
:1008190075F008758200EF2FFFEE33FECD33CDCC96
:1008290033CCC58233C5829BED9AEC99E582984019
:100839000CF582EE9BFEED9AFDEC99FC0FD5F0D6F6
:10084900E4CEFBE4CDFAE4CCF9A88222B800C1B920
:100859000059BA002DEC8BF084CFCECDFCE5F0CB5E
:10086900F97818EF2FFFEE33FEED33FDEC33FCEB97
:1008790033FB10D703994004EB99FB0FD8E5E4F952
:10088900FA227818EF2FFFEE33FEED33FDEC33FC3F
:10089900C933C910D7059BE99A4007EC9BFCE99A33
:1008A900F90FD8E0E4C9FAE4CCFB2275F010EF2F78
:1008B900FFEE33FEED33FDCC33CCC833C810D70778
:1008C9009BEC9AE899400AED9BFDEC9AFCE899F8B3
:0E08D9000FD5F0DAE4CDFBE4CCFAE4C8F92246
:00000001FF
