:103DD60069646C65007461736B31007461736B5F49
:103DE6006D736768616E646C6572007461736B5F96
:0D3DF60074747930007461736B32002F001B
:1033E800750E00750DC2750C01750B007F187E00F7
:1033F8001234D07F107E27123B9BC2AF1239107B4C
:10340800FF7A3F79DCAC02AD017BFF7A3D79D68B40
:10341800118A1289137B007A007FFF1225077BFF30
:103428007A3F794AAC02AD017BFF7A3D79DB8B119B
:103438008A1289137B007A007F021225077BFF7AA4
:103448001979C2AC02AD017BFF7A3D79E18B118A13
:103458001289137B007A007F011225077BFF7A31DE
:1034680079CDAC02AD017BFF7A3D79F18B118A12DF
:1034780089137B007A007F001225077BFF7A3F794A
:103488005BAC02AD017BFF7A3D79FB8B118A128917
:10349800137B007A007F031225077BFF7A3E7901B0
:1034A8007511507512007513327D007C501228AECC
:1034B8009000007450F0A3E4F090045E7452F0A3FE
:0834C800E4F0123CDD80FE225D
:0A3FC00075C70075C50075C6002224
:103E5C008E148F158D1675C70143C78075C502E585
:103E6C0014FF7E008FC38515C48516C275C65A759E
:083E7C00C6A50000123FC022A0
:103E30008E338F348D358A368B3775C70143C780F3
:103E400075C502E533FF7E008FC38534C48535C256
:0C3E500075C65A75C6A50000123FC022BE
:043E84008E1A8F1BE8
:103E880075C70143C78075C501E51AFF7E008FC35A
:103E9800851BC475C65A75C6A5000085C21C123F8D
:033EA800C0AF1C8C
:013EAB0022F4
:103EAC008E0F8F1075C70143C78075C503E50FFFD3
:103EBC007E008FC37E00AF108FC475C65A75C6A521
:083ECC0000000000123FC022BB
:1034D0008E098F0A439850438E05AF0EAE0DAD0C8A
:1034E000AC0B7B647A007900780012150E8F0E8E7B
:1034F0000D8D0C8C0BAB0EAA0DA90CA80B7F907E2A
:10350000D07D037C0012150EA804A905AA06AB07FE
:10351000AE09AF0AE4FCFD1214837B647A007900E3
:10352000780012150EA804A905AA06AB07C3E49BF0
:10353000FFE49AFE740199FDE498FC7B007A01791E
:1035400000780012150E8FD6AB0EAA0DA90CA80B91
:103550007F907ED07D037C0012150EA804A905AAD9
:1035600006AB07AE09AF0AE4FCFD1214837B647A54
:10357000007900780012150EA804A905AA06AB0769
:10358000C3E49BFFE49AFE740199FDE498FCEF54B8
:10359000FFFFEE5400FEED5400FDEC5400FC8FD70D
:0635A000438E10D2AF22A1
:103F3700759850438E01438E0475D7CC75D6FF43D1
:033F47008E1022B7
:0F3F8C008F12C2AF8512993099FDC299D2AF2220
:063CA2008B0F8A1089114E
:103CA8009006ABE4F0AB0FAA10A911121371FFEF45
:103CB800601DAB0F0511E511AA107002051014F96B
:103CC800121371FF123F8C9006ABE004F080D6907F
:043CD80006ABE0FF58
:013CDC0022C5
:0B3FAA00309805C298AF99227F0022DA
:083FD4003098FDC298AF99225C
:043B9B008E098F0AF6
:103B9F00AE09AF0AE4FCFD7B007A8079007800C3A0
:103BAF001215A0401EE50A25E0FFE50933FEC3E428
:103BBF009FF50CE49EF50BE50BFF7E008F8D850CBA
:103BCF008B8006758D00758B00538EBF53890F4305
:043BDF008900C28F08
:013BE30022BF
:043C28008E3D8F3E00
:103C2C00AE3DAF3EE4FCFD7B007A8079007800C3AA
:103C3C001215A0401DE53E25E0FFE53D33FEC3E433
:103C4C009FF540E49EF53FE53FFF7E008F8D85405C
:083C5C008B22758D00758B00B1
:013C6400223D
:043B04008E418F421D
:103B0800AE41AF42E4FCFD7B007A8079007800C3C7
:103B18001215A0401EE54225E0FFE54133FEC3E44F
:103B28009FF544E49EF543E543FF7E008F8C854472
:103B38008A8006758C00758A00538EBF53890F439F
:083B48008900D2A9D28CD2AF92
:013B50002252
:043C65008E458F46B3
:103C6900AE45AF46E4FCFD7B007A8079007800C35D
:103C79001215A0401DE54625E0FFE54533FEC3E4E6
:103C89009FF548E49EF547E547FF7E008F8C854800
:083C99008A22758C00758A0077
:013CA1002200
:103DA70041046200410467004406320000000042FB
:103DB7000468000044046300000000C1004104607F
:053DC700004104610051
:103D46008E0C8F0DAE0CAF0D7C007D0A1213EB8E20
:103D56000C8F0DAF0D123EEF900467E0FFEF75F08C
:103D66000FA4243CF582E43406F583E0FFEF70E807
:013D7600222A
:10391000750900750A00900467E4F09006321215EC
:10392000C2000000009004631215C200000000C233
:1039300000750900750A00C3E50A9405E5099400BD
:103940005041AE09AF0A90063E75F00FEF1215F325
:10395000EE75F00FA42583F5831215C20000000058
:10396000AE09AF0A90063C75F00FEF1215F3EE7535
:10397000F00FA42583F583E4F0050AE50A7002053B
:033980000980B407
:013983002221
:103CDD00900467E0FFEF75F00FA4243DF582E43406
:103CED0006F583E024F3F0900467E0FFEF75F00F25
:103CFD00A4243DF582E43406F583E0FF8F81D28E56
:053D0D00D2ABD2AF2291
:0235A6008F0C88
:1035A800C2AF900469E004F07006900468E004F08B
:1035B800AF0C74017E00A807088005C333CE33CE54
:1035C800D8F9FFEE3395E0FDFC900632E0F8A3E071
:1035D800F9A3E0FAA3E0FBEF5BFFEE5AFEED59FD1D
:1035E800EC58FCEC4D4E4F606C900632E0FCA3E0CA
:1035F800FDA3E0FEA3E0FFC004C005C006C007AFFE
:103608000C74017E00A807088005C333CE33CED8DA
:10361800F9FFEFF4FFEEF4FEAB07AA06EA3395E0F4
:10362800F9F8D007D006D005D004EF5BFFEE5AFEBC
:10363800ED59FDEC58FC9006321215B6900462E084
:1036480014F0D2AF900469E024FFF0900468E034ED
:10365800FFF07F0022D2AF900469E024FFF09004CD
:0736680068E034FFF07F0170
:01366F002238
:103ED400C2AF900467E0FFEF75F00FA4243DF582B4
:0B3EE400E43406F583E581F0D2AF2244
:0A2507008F0C8C0D8D0E8A0F8B10C7
:10251100C2AF900469E004F07006900468E004F032
:10252100900460E4F0900460E0FFEFC39405400381
:102531000226D3900460E0FF74017E00A8070880A2
:1025410005C333CE33CED8F9FFEE3395E0FDFC90D1
:102551000632E0F8A3E0F9A3E0FAA3E0FBEF5BFFAA
:10256100EE5AFEED59FDEC58FCEC4D4E4F60030266
:1025710026CA900460E0FFEF75F01EA4244CF8AF6A
:10258100008F4B900461E4F0900461E0FFEFC3948D
:102591001E5016AF4BA807900461E0FFE82FF876B4
:1025A10000900461E004F080DF900460E0FFEF75CB
:1025B100F00FA4243DF582E43406F583E54BF07E6B
:1025C10000AF0EAE4BA806A607900460E0FFEF75C2
:1025D100F00FA4243DF582E43406F583E004F0E530
:1025E1000DFF7E00AE4BA806E804F8A60790046034
:1025F100E0FFEF75F00FA4243DF582E43406F58386
:10260100E0240DF0900460E0FFEF75F00FA4243A90
:10261100F582E43406F583E50CF0AE0FAF10AA069F
:10262100A9077B01900460E0FFEF75F00FA424423D
:10263100F582E43406F583EBF0A3EAF0A3E9F0AB0D
:1026410011AA12A913900460E0FFEF75F00FA42402
:1026510036F582E43406F583EBF0A3EAF0A3E9F062
:10266100900632E0FCA3E0FDA3E0FEA3E0FFC0047E
:10267100C005C006C007900460E0FF74017E00A899
:1026810007088005C333CE33CED8F9FFAB07AA06BE
:10269100EA3395E0F9F8D007D006D005D004EF4B26
:1026A100FFEE4AFEED49FDEC48FC9006321215B6EC
:1026B100900462E004F0D2AF900469E024FFF0904E
:1026C1000468E034FFF07F0022900460E004F0022F
:1026D1002526D2AF900469E024FFF0900468E0342D
:0426E100FFF07F0186
:0126E50022D2
:03001B00022317A6
:10231700C0E0C0F0C083C082C0D075D000C000C08C
:0D23270001C002C003C004C005C006C0070D
:10233400900681E4F0750800C2AFC28F900467E094
:10234400FFEF75F00FA4243DF582E43406F583E530
:1023540081F0900467E4F0900681E4F0900681E057
:10236400FFEFC394054003022487900681E0FF74C5
:10237400017E00A807088005C333CE33CED8F9FF09
:10238400EE3395E0FDFC900632E0F8A3E0F9A3E01B
:10239400FAA3E0FBEF5BFFEE5AFEED59FDEC58FCAF
:1023A400EC4D4E4F700302247E900467E0FFEF75FE
:1023B400F00FA4243AF582E43406F583E0FF900696
:1023C40081E0FEEE75F00FA4243AF582E43406F5BC
:1023D40083E0FEEEC39F400302247E900681E0FF6B
:1023E400EF75F00FA4243CF582E43406F583E0FF96
:1023F400EF6018900681E0FFEF75F00FA4243CF520
:1024040082E43406F583E014F0806F900681E0FFE7
:10241400EF75F00FA4243BF582E43406F583E0FF66
:10242400EFB4010480548052900681E0FF90046769
:10243400EFF0900467E0FFEF75F00FA4243EF582FF
:10244400E43406F583E0FCA3E0FDA3E0FEA3E0FF93
:102454007B017A0079007800EF2BFFEE3AFEED392C
:10246400FDEC38FC900467E0FBEB75F00FA4243E10
:10247400F582E43406F5831215B6900681E004F083
:1024840002236090063CE0FFEF600690063CE014F7
:10249400F0900467E0FFEF75F00FA4243DF582E4AB
:1024A4003406F583E0FF8F81900467E0FFEF75F059
:1024B4000FA42439F582E43406F5837401F0900402
:1024C40063E0FCA3E0FDA3E0FEA3E0FF7B017A0050
:1024D40079007800EF2BFFEE3AFEED39FDEC38FC85
:0824E4009004631215B6D2AF9B
:1024EC00D007D006D005D004D003D002D001D00044
:0B24FC00D0D0D082D083D0F0D0E032EE
:103EEF008F0F900467E0FFEF75F00FA4243CF5826D
:0B3EFF00E43406F583E50FF0D28F22BB
:103D1200900467E0FFEF75F00FA42439F582E434D4
:103D220006F583E0FFEFB40118900467E0FFEF753A
:103D3200F00FA42439F582E43406F583E4F07F0120
:043D4200227F0022BA
:0B3FB5007B007A00794CAF018F812265
:10001E005468657265206172652022002220746129
:10002E00736B73206172652072756E6E696E672ECA
:10003E00000920437075206861732072756E20224E
:10004E0000222074696D65730D0A00706964097071
:10005E0072696F72697479096370755F757365097A
:10006E006E616D650D0A0D0A000909000D0A005436
:10007E006865207461736B20646F6E2774206578D9
:10008E0069740D0A00546865207461736B20686191
:10009E0073206265656E206B696C6C6564203A2016
:1000AE007069646E756D203D200054686520746122
:1000BE00736B20796F752073656C65637420636153
:1000CE006E2774206265206B696C6C65640D0A0086
:1000DE00546865207461736B206861732062656576
:1000EE006E2065786973740D0A007461736B31004C
:1000FE00546865207461736B206861732062656556
:10010E006E2063726561746564203A207461736B4E
:10011E00206E616D65203D200069646C6500746120
:10012E00736B3200546865207461736B20796F7540
:10013E002073656C6563742063616E27742062653D
:10014E0020637265617465640D0A00006C00556E63
:10015E006B6E6F772074617267657420616674656B
:10016E007220276C73270054686572652061726572
:10017E0020736F6D6520696E76616C696420776F90
:10018E0072647320696E2074686520646972206ED3
:10019E00616D6520737472696E670D0A004E616D34
:1001AE006520746F6F206C617267650D0A00437273
:1001BE0065617465206572726F722C20746865209B
:1001CE0073616D65206E616D65206F72206E6F209C
:1001DE006D6F7265206E6F6465730D0A004E6F2031
:1001EE006D6F726520737061636520746F2063722A
:1001FE00656174652061206469720D0A005468653A
:10020E0072652061726520736F6D6520696E76610F
:10021E006C696420776F72647320696E20746865F0
:10022E002066696C65206E616D6520737472696EEF
:10023E00670D0A004E6F206D6F72652073706163DB
:10024E006520746F20637265617465206120666934
:10025E006C650D0A0023000D0A546F6F206D7563D7
:10026E006820776F7264730D0A00506C6561736558
:10027E0020696E70757420796F757220636F6D6D65
:10028E006F6E6420616761696E20616E6420646FB9
:10029E006E742774206D6F7265207468616E2032E3
:1002AE0035340D0A2300082008006B696C6C006E53
:1002BE006577007073006C73006D6B646972007407
:1002CE006F756368006364006D6B667300726D001A
:1002DE007669006361740068656C70006578697496
:1002EE00003A20756E646566696E656420636F6D95
:1002FE006D6F6E640D0A00312E70733A0964697366
:10030E00706C6179207468652072756E6E696E67A7
:10031E00207461736B730D0A000000000000000072
:10032E0000000000000000000000000000000000BF
:10033E0000000000000000000000000000000000AF
:10034E00000000000000000000000000000000009F
:10035E000000000000000000000000322E6B696CEF
:10036E006C3A096B696C6C20746865207461736BF0
:10037E0020796F7520686176652073656C6563748E
:10038E0065640D0A096578616D706C653A0D0A0930
:10039E00096B696C6C2034202D2D2D6B696C6C20D3
:1003AE0074686520347468207461736B0D0A0000E4
:1003BE0000000000000000000000000000000033FC
:1003CE002E6E65773A0963726561746520612074DB
:1003DE0061736B0D0A096578616D706C653A0D0A73
:1003EE0009096E6577207461736B32202D2D2D6394
:1003FE00726561746520746865207461736B206E1C
:10040E00616D656420277461736B32270D0A0000DD
:10041E0000000000000000000000000000000000CE
:10042E00000000342E6C733A09646973706C617944
:10043E00207468652066696C657320696E20746827
:10044E00652063757272656E7420666C6F6465727A
:10045E000D0A096578616D706C653A0D0A09096CB3
:10046E0073206C202D2D2D646973706C6179206959
:10047E006E2064657461696C0D0A00000000000056
:10048E0000000000000000352E6D6B6469723A09A1
:10049E00637265617465206120666C6F6465720DB0
:1004AE000A096578616D706C653A0D0A09096D6B04
:1004BE0064697220646972202D2D2D6D616B65202B
:1004CE006120666C6F646572206E616D65642027B5
:1004DE00646972270D0A0000000000000000000091
:1004EE000000000000000000000000362E746F7542
:1004FE0063683A096372617465206120746578746B
:10050E002066696C650D0A096578616D706C653AD7
:10051E000D0A0909746F75636820747874202D2D87
:10052E002D6D616B6520612066696C65206E616D55
:10053E0065642027747874270D0A000000000000FF
:10054E000000000000000000000000000000003766
:10055E002E63643A096368616E676520746865206E
:10056E0063757272656E7420666C6F6465720D0AC7
:10057E00096578616D706C653A0D0A09096364202E
:10058E00646972202D2D2D6368616E676520746F0E
:10059E0020646972206E616D65642027646972271C
:1005AE000D0A000000000000000000000000000026
:1005BE00000000382E6D6B66733A09666F726D61BE
:1005CE007420616C6C207468652066696C6520739C
:1005DE00797374656D0D0A000000000000000000C4
:1005EE0000000000000000000000000000000000FD
:1005FE0000000000000000000000000000000000ED
:10060E0000000000000000000000000000000000DC
:10061E0000000000000000392E726D3A0964656C0E
:10062E006574652066696C65200D0A096578616DD3
:10063E00706C653A200D0A0909726D20646972208A
:10064E002D2D2D64656C6574652074686520666952
:10065E006C65206E616D65642027646972270D0AD2
:10066E00000000000000000000000000000000007C
:10067E00000000000000000000000031302E7669FE
:10068E003A096564697420746578742066696C65CE
:10069E000D0A096578616D706C653A0D0A090920BD
:1006AE00766920747874202D2D2D656469742074FC
:1006BE0068652066696C65206E616D6564202774BF
:1006CE007874270D0A0000000000000000000000F2
:1006DE0000000000000000000000000000000031DB
:1006EE00312E6361743A096C6F6F6B207465787488
:1006FE002066696C650D0A096578616D706C653AE6
:10070E000D0A090963617420747874202D2D2D6CE7
:10071E006F6F6B207570207468652066696C65203C
:10072E006E616D65642027747874270D0A000000D1
:10073E0000000000000000000000000000000000AB
:10074E0000000031322E657869743A096578697453
:10075E0020616C6C20746869732073797374656D95
:10076E000D0A000000000000000000000000000064
:10077E00000000000000000000000000000000006B
:10078E00000000000000000000000000000000005B
:10079E00000000000000000000000000000000004B
:1007AE00000000000000000000000000000000003B
:1007BE00000000000000000000000000000000002B
:1007CE00000000000000000000000000000000001B
:1007DE00000000000000000000000000000000000B
:1007EE0000000000000000000000000000000000FB
:1007FE0000000000000000000000000000000000EB
:0B080E000000000000000000000000DF
:093DCC004106C9004206C70000CF
:100003009006C97401F09006C9E0FFEF60097F0212
:08001300123EEFD28F80EF22B4
:061625008B098A0A890B03
:10162B00900682E4F0900683E4F07BFF7A00791E4B
:10163B00123CA2900462E0FFEF2430FF123F8C7B40
:10164B00FF7A00792A123CA27BFF7A00793F123C89
:10165B00A27B007AE4790B7854900463E0FCA3E05E
:10166B00FDA3E0FEA3E0FF12150EEF2430FF123FA7
:10167B008C7B007ACA799A783B900463E0FCA3E0F8
:10168B00FDA3E0FEA3E0FF12150EAC00AD01AE0210
:10169B00AF037B007ACA799A783B12150EEF243090
:1016AB00FF123F8C7B007AE179F57805900463E0BB
:1016BB00FCA3E0FDA3E0FEA3E0FF12150EAC00AD12
:1016CB0001AE02AF037B807A967998780012150EE3
:1016DB00EF2430FF123F8C7B807A967998780090BC
:1016EB000463E0FCA3E0FDA3E0FEA3E0FF12150EF4
:1016FB00AC00AD01AE02AF037B407A42790F7800AC
:10170B0012150EEF2430FF123F8C7B407A42790F7B
:10171B007800900463E0FCA3E0FDA3E0FEA3E0FFF0
:10172B0012150EAC00AD01AE02AF037BA07A867929
:10173B0001780012150EEF2430FF123F8C7BA07A3C
:10174B008679017800900463E0FCA3E0FDA3E0FE42
:10175B00A3E0FF12150EAC00AD01AE02AF037B1080
:10176B007A277900780012150EEF2430FF123F8C88
:10177B007B107A2779007800900463E0FCA3E0FDEE
:10178B00A3E0FEA3E0FF12150EAC00AD01AE02AF5D
:10179B00037BE87A037900780012150EEF2430FFF3
:1017AB00123F8C7BE87A0379007800900463E0FCAD
:1017BB00A3E0FDA3E0FEA3E0FF12150EAC00AD010C
:1017CB00AE02AF037B647A007900780012150EEF3E
:1017DB002430FF123F8C7B647A00790078009004F0
:1017EB0063E0FCA3E0FDA3E0FEA3E0FF12150EAC4B
:1017FB0000AD01AE02AF037B0A7A007900780012CC
:10180B00150EEF2430FF123F8C7B0A7A007900789B
:10181B0000900463E0FCA3E0FDA3E0FEA3E0FF1255
:10182B00150EAC00AD01AE02AF03EF2430FF123F3B
:10183B008C7BFF7A00794F123CA27BFF7A0079599F
:10184B00123CA2900682E4F0900682E0FFEFC39474
:10185B000540030219C1900682E0FF74017E00A8C7
:10186B0007088005C333CE33CED8F9FFEE3395E0AE
:10187B00FDFC900632E0F8A3E0F9A3E0FAA3E0FB4D
:10188B00EF5BFFEE5AFEED59FDEC58FCEC4D4E4F65
:10189B0070030219B8900682E0FFEF75F00FA424D5
:1018AB003EF582E43406F583E0FCA3E0FDA3E0FE05
:1018BB00A3E0FF7B647A0079007800121483900414
:1018CB0063E0F8A3E0F9A3E0FAA3E0FB12150E9096
:1018DB000683EFF0900682E0FFEF2430FF123F8C7F
:1018EB007F09123F8C900682E0FFEF75F00FA42466
:1018FB003AF582E43406F583E0FFEF75F06484FF7C
:10190B00EF2430FF123F8C900682E0FFEF75F00F53
:10191B00A4243AF582E43406F583E0FFEF75F06416
:10192B0084AFF0EF75F00A84FFEF2430FF123F8C89
:10193B00900682E0FFEF75F00FA4243AF582E434B1
:10194B0006F583E0FFEF75F00A84AFF0EF2430FF6C
:10195B00123F8C7BFF7A007977123CA2900683E0D2
:10196B00FFEF75F00A84FFEF2430FF123F8C9006D7
:10197B0083E0FFEF75F00A84AFF0EF2430FF123FE6
:10198B008C7F09123F8C900682E0FFEF75F00FA45D
:10199B002436F582E43406F583E0FBA3E0FAA3E0FA
:1019AB00F9123CA27BFF7A00797A123CA290068254
:0619BB00E004F0021853E5
:0119C1002203
:1039F6008B098A0A890B90057EE0FFEF64326048E6
:103A060090057EE0FFEF6433603E90057EE0FFEFB9
:103A16006430603490057EE0FFEF24D0FF1235A6B7
:103A2600EF600A7BFF7A00797D123CA2227BFF7A47
:103A3600007993123CA290057EE0FF123F8C7BFF3B
:103A46007A00797A123CA2227BFF7A0079B8123C7E
:023A5600A222AA
:0626E6008B098A0A890B32
:1026EC00900682E4F0900682E0FFEFC3940540036D
:1026FC00022787900682E0FF74017E00A8070880FD
:10270C0005C333CE33CED8F9FFEE3395E0FDFC9004
:10271C000632E0F8A3E0F9A3E0FAA3E0FBEF5BFFDD
:10272C00EE5AFEED59FDEC58FCEC4D4E4F60437BE0
:10273C00017A05797EC003C002C001900682E0FFD9
:10274C00EF75F00FA42436F582E43406F583E0FB34
:10275C00A3E0FAA3E0F98B1D8A1E891FD001D002D9
:10276C00D003123AB6EF700A7BFF7A0079DE123C86
:10277C00A222900682E004F00226F17BFF7A007917
:10278C00F8C003C002C0017B017A05797E8B1D8ADB
:10279C001E891FD001D002D003123AB6EF703B7BDA
:1027AC00FF7A3F794AAC02AD017BFF7A0079F88B56
:1027BC00118A1289137B007A007F021225077BFF96
:1027CC007A0079FE123CA27B017A05797E123CA23A
:1027DC007BFF7A00797A123CA2227BFF7A0179275F
:1027EC00C003C002C0017B017A05797E8B1D8A1E55
:1027FC00891FD001D002D003123AB6EF703B7BFF99
:10280C007A3F79DCAC02AD017BFF7A0179278B1121
:10281C008A1289137B007A007FFF1225077BFF7ACF
:10282C000079FE123CA27B017A05797E123CA27BD8
:10283C00FF7A00797A123CA2227BFF7A01792CC0B4
:10284C0003C002C0017B017A05797E8B1D8A1E892B
:10285C001FD001D002D003123AB6EF703B7BFF7A47
:10286C003F795BAC02AD017BFF7A01792C8B118A2D
:10287C001289137B007A007F031225077BFF7A00F5
:10288C0079FE123CA27B017A05797E123CA27BFF79
:10289C007A00797A123CA2227BFF7A017932123CBF
:0128AC00A289
:0128AD002208
:103891008B098A0A890B7BFF7A017959C003C0021F
:1038A100C0017B017A05797E8B1D8A1E891FD0019B
:1038B100D002D003123AB6EF700F900000E0FEA3E1
:1038C100E0FF7D00121EE5803C7BFF7A01795AC042
:1038D10003C002C0017B017A05797E8B1D8A1E8996
:1038E1001FD001D002D003123AB6EF700F90000042
:1038F100E0FEA3E0FF7D01121EE580097BFF7A0156
:0F390100795C123CA27BFF7A00797A123CA222F9
:063791008B098A0A890B76
:103797007B017A05797E123984900682EFF09006D4
:1037A70082E0FFEFB4010A7BFF7A017975123CA230
:1037B70022900682E0FFEFB4020A7BFF7A0179AB21
:1037C700123CA2227B017A0679837F007E021230A7
:1037D700A6EF4E602B7B017A05797E900683E0FC8D
:1037E700A3E0FD900000E0F511A3E0F51275133A90
:1037F7001228AEEF60137BFF7A0179BC123CA2223C
:093807007BFF7A0179EB123CA26F
:013810002295
:063811008B098A0A890BF5
:103817007B017A05797E123984900682EFF0900653
:1038270082E0FFEFB4010A7BFF7A02790B123CA218
:1038370022900682E0FFEFB4020A7BFF7A0179ABA0
:10384700123CA2227B017A0679837F007E02123026
:10385700A6EF4E602B7B017A05797E900683E0FC0C
:10386700A3E0FD900000E0F511A3E0F51275133811
:103877001228AEEF60137BFF7A0179BC123CA222BB
:093887007BFF7A027942123CA297
:013890002215
:103F6C008B098A0A890B7B017A05797E122DB02286
:0A3FCA008B098A0A890B123A58226B
:103D77008B098A0A890BC2AF900469E004F07006C8
:103D8700900468E004F07B017A05797E120DD7D2A2
:103D9700AF900469E024FFF0900468E034FFF0225C
:103F7C008B098A0A890B7B017A05797E1208192232
:103F0A008B098A0A890B7B017A05797E122A607BE2
:093F1A00FF7A00797A123CA22220
:063670008B098A0A890B98
:10367600750C00750D00C2AF900469E004F0700689
:10368600900468E004F0AF0C75F064EFA42405F52F
:1036960082E5F03403F583E493FFEF6051AF0DAE9E
:1036A6000C75F064EEA42405F582E5F03403F58389
:1036B600E5822FF582E43583F583E493FFEF6027F7
:1036C600AF0DAE0C75F064EEA42405F582E5F0347A
:1036D60003F583E5822FF582E43583F583E493FFD2
:1036E600123F8C050D80B6050C750D008098D2AF83
:0E36F600900469E024FFF0900468E034FFF0D7
:0137040022A2
:0F3F9B008B098A0A890BC2AFC28EC2AB80FE228D
:103F4A00C29175A006B2807FF47E01123D4680F0D0
:013F5A002244
:033FDC0080FE2242
:103F5B00C29175A006B2867F327E00123D4680F07C
:013F6B002233
:1031CD007BFF7A027963123CA2123FAA9006C7E0F8
:1031DD00FCA3E0FDAE05746A2EF582E43404F5839C
:1031ED00EFF09006C7E0FEA3E0FF746A2FF582E4CE
:1031FD003404F583E0FFEF700B7F02123EEFD28FA8
:10320D0080C780C59006C7E0FEA3E0FFC3EF94FE24
:10321D00EE9400401C7BFF7A027965123CA27BFF85
:10322D007A027978123CA29006C7E4F0A3E4F0800C
:10323D00989006C7E0FEA3E0FF746A2FF582E43490
:10324D0004F583E0FFEFB4082E9006C7E0FEA3E07F
:10325D00FFD3EF9400EE940050030231D69006C8D0
:10326D00E024FFF09006C7E034FFF07BFF7A02798F
:10327D00B4123CA20231D69006C7E0FEA3E0FF7463
:10328D006A2FF582E43404F583E0FFEFB40D279047
:10329D0006C7E0FEA3E0FF746A2FF582E43404F55F
:1032AD0083E4F0900659E4F01200039006C7E4F0B1
:1032BD00A3E4F00231D69006C7E0FEA3E0FF746AE6
:1032CD002FF582E43404F583E0FF123F8C9006C89D
:0E32DD00E004F070069006C7E004F00231D65F
:0132EB0022C0
:1019C2007BFF7A00797A123CA27B017A04796AC0A1
:1019D20003C002C0017B017A05796A8B0C8A0D89EA
:1019E2000ED001D002D0031232EC7BFF7A0279B81A
:1019F200C003C002C0017B017A05796A8B1D8A1E71
:101A0200891FD001D002D003123AB6EF700C7B00CE
:101A12007A0079001239F6021C907BFF7A0279BDB6
:101A2200C003C002C0017B017A05796A8B1D8A1E40
:101A3200891FD001D002D003123AB6EF700C7B009E
:101A42007A0079001226E6021C907BFF7A0279C1A5
:101A5200C003C002C0017B017A05796A8B1D8A1E10
:101A6200891FD001D002D003123AB6EF700C7B006E
:101A72007A007900121625021C907BFF7A0279C443
:101A8200C003C002C0017B017A05796A8B1D8A1EE0
:101A9200891FD001D002D003123AB6EF700C7B003E
:101AA2007A007900123891021C907BFF7A0279C782
:101AB200C003C002C0017B017A05796A8B1D8A1EB0
:101AC200891FD001D002D003123AB6EF700C7B000E
:101AD2007A007900123791021C907BFF7A0279CD4D
:101AE200C003C002C0017B017A05796A8B1D8A1E80
:101AF200891FD001D002D003123AB6EF700C7B00DE
:101B02007A007900123811021C907BFF7A0279D395
:101B1200C003C002C0017B017A05796A8B1D8A1E4F
:101B2200891FD001D002D003123AB6EF700C7B00AD
:101B32007A007900123F6C021C907BFF7A0279D600
:101B4200C003C002C0017B017A05796A8B1D8A1E1F
:101B5200891FD001D002D003123AB6EF700C7B007D
:101B62007A007900123FCA021C907BFF7A0279DB6D
:101B7200C003C002C0017B017A05796A8B1D8A1EEF
:101B8200891FD001D002D003123AB6EF700C7B004D
:101B92007A007900123D77021C907BFF7A0279DE8F
:101BA200C003C002C0017B017A05796A8B1D8A1EBF
:101BB200891FD001D002D003123AB6EF700C7B001D
:101BC2007A007900123F7C021C907BFF7A0279E155
:101BD200C003C002C0017B017A05796A8B1D8A1E8F
:101BE200891FD001D002D003123AB6EF700C7B00ED
:101BF2007A007900123F0A021C907BFF7A0279E593
:101C0200C003C002C0017B017A05796A8B1D8A1E5E
:101C1200891FD001D002D003123AB6EF700B7B00BD
:101C22007A00790012367080657BFF7A0279EAC009
:101C320003C002C0017B017A05796A8B1D8A1E8965
:101C42001FD001D002D003123AB6EF700B7B007A9C
:101C5200007900123F9B80367BFF7A017959C003DD
:101C6200C002C0017B017A05796A8B1D8A1E891F19
:101C7200D001D002D003123AB6EF60127B017A058E
:101C8200796A123CA27BFF7A0279EF123CA27BFFB7
:101C92007A027963123CA29006C9E4F09006597464
:081CA20001F0D28F0219C222E9
:0A3B51008B388A39893A8C3B8D3C91
:103B5B009006CAE4F0A3E4F09006CAE0FEA3E0FFEF
:103B6B00C3EF953CEE953B5026AB38AA39A93A905A
:103B7B0006CAE0FEA3E0FF8F828E83E41213C99086
:0F3B8B0006CBE004F070069006CAE004F080C993
:013B9A002208
:103AB6008B1A8A1B891CAB1AAA1BA91C121371FF2D
:103AC600EF700DAB1DAA1EA91F121371FFEF602B1D
:103AD600AB1D051FE51FAA1E7002051E14F9121361
:103AE60071FFAB1A051CE51CAA1B7002051B14F915
:0E3AF600121371FEEE6F60BE7F01227F002270
:0632EC008B098A0A890B20
:1032F200750F00751000751101AB09AA0AA90B120E
:103302001371FFEFB420037F0122AB09AA0AA90BB4
:10331200121371FFEF700302339FAB09AA0AA90BC4
:10332200121371FFEFB4202AAF0F7E14EF8EF0A4B8
:10333200FFAEF0AB0CAA0DA90EE92FF9EA3EFAAFE7
:10334200107E00E92FF9EA3EFAE41213B775110074
:10335200803BE5117008050F751000751101AB096E
:10336200AA0AA90B121371FDAF0F7E14EF8EF0A4FF
:10337200FFAEF0AB0CAA0DA90EE92FF9EA3EFAAFA7
:10338200107E00E92FF9EA3EFAED1213B774012517
:103392000BF50BE4350AF50A051002330CAF0F7E6C
:1033A20014EF8EF0A4FFAEF0AB0CAA0DA90EE92F1C
:1033B200F9EA3EFAAF107E00E92FF9EA3EFAE4128A
:1033C20013B7AF0F7E14EF8EF0A4FFAEF0AB0CAAD2
:1033D2000DA90EE92FF9EA3EFA758214758300E40D
:0533E2001213C97F0079
:0133E70022C3
:063984008B0C8A0D890E78
:10398A00750F00751000AB0CAA0DA90E121371FF6A
:10399A00EF6056AB0CAA0DA90E121371FFEF603837
:1039AA00AB0CAA0DA90E121371FFEFC3943040108D
:1039BA00AB0CAA0DA90E121371FFEFD3947A400330
:1039CA007F01227401250EF50EE4350DF50D051063
:1039DA00E5107002050F80BBD3E5109413E50F9430
:0B39EA000040037F02227F00227F01CB
:0139F50022AF
:102C0A002A002F004974206973206120666C6F6462
:102C1A0065720D0A004E6F20737563682066696CD1
:102C2A00650D0A00546865726520617265207465D5
:102C3A0078747320696E20746869732066696C659C
:102C4A002C20706C656173652064656C6574652001
:102C5A00746869732066696C6520616E64206372AA
:102C6A00656174652061206E65770D0A000D0A544E
:102C7A006F6F206D75636820776F7264730D0A0039
:102C8A00506C656173652073617665206974206E86
:102C9A006F770D0A000D0A00796F752071756974D6
:102CAA000D0A0008200800416C6C6F632073706184
:102CBA006365206661696C65640D0A004974206E5B
:102CCA006F74206120746578742066696C650D0ADA
:102CDA0000CEC4BCFEBCD00900CEC4B1BE0900BF40
:102CEA00C9B6C10900B2BBBFC9B6C10900BFC9D0C4
:102CFA00B40900B2BBBFC9D0B40900BFC9C9BE0973
:102D0A0000B2BBBFC9C9BE09000909002E2E002E98
:102D1A002E2F004E6F742061206469722C20627518
:102D2A0074206120746578742066696C650D0A00E8
:102D3A004E6F2073756368206469720D0A005065CE
:102D4A00726D6974696F6E2064656E6965640D0AD7
:102D5A00005468657265206172652066696C6573E6
:102D6A0020696E207468697320666F6C6465722CC2
:102D7A0020706C656173652064656C657465207488
:102D8A0068656D2066697273740D0A004E6F207350
:102D9A007563682066696C65206F72206469720DBC
:062DAA000A000000000019
:0A1CAA008E148F158B168A17891807
:101CB4009006AFE4F0A3E4F09006B1E4F0A3E4F0FE
:101CC400E515241CF515E5143400F514C2AF900491
:101CD40069E004F07006900468E004F09006ADE456
:101CE400F0A3E4F09006ADE0FEA3E0FFC3EF944060
:101CF400EE94004003021ECF9006ADE0FEA3E0FF89
:101D0400E5152FFFE5143EFE123E84EF64FF7003D9
:101D1400021EBE9006ADE0FEA3E0FFE5152FFFE531
:101D2400143EFEEF2401FFEE3400FE123E847E00DA
:101D34009006B1EEF0A3EFF09006B1E0FEA3E0FF51
:101D4400EF7F00FE9006B1EEF0A3EFF09006B1E055
:101D5400FEA3E0FFC006C0079006ADE0FEA3E0FFCF
:101D6400E5152FFFE5143EFE123E84EFFD7C00D006
:101D740007D006EE4CFEEF4DFF9006B1EEF0A3EF58
:101D8400F09006B2E02402F09006B1E03400F09046
:101D940006AFE0FEA3E0FF9006B1E0FCA3E0FDED9A
:101DA4002FFFEC3EFE123E849006AFE0FCA3E0FD64
:101DB400AE0574B32EF582E43406F583EFF0FFEF3D
:101DC40060109006B0E004F070069006AFE004F0F6
:101DD40080BD9006AFE0FEA3E0FF74B32FF582E46C
:101DE4003406F583E4F07BFF7A2C790AC003C00241
:101DF400C001AB16AA17A9188B1D8A1E891FD00112
:101E0400D002D003123AB6EF703EE5196021D2AF8A
:101E1400900469E024FFF0900468E034FFF0900639
:101E2400B1E0FEA3E0FFEF24FEFFEE34FFFE22D27A
:101E3400AF900469E024FFF0900468E034FFF09070
:101E440006ADE0FEA3E0FF227B017A0679B3C0036E
:101E5400C002C001AB16AA17A9188B1D8A1E891FC0
:101E6400D001D002D003123AB6EF703EE5196021DA
:101E7400D2AF900469E024FFF0900468E034FFF0EE
:101E84009006B1E0FEA3E0FFEF24FEFFEE34FFFE78
:101E940022D2AF900469E024FFF0900468E034FF9C
:101EA400F09006ADE0FEA3E0FF229006AFE4F0A3BD
:101EB400E4F09006B1E4F0A3E4F09006AEE024026E
:101EC400F09006ADE03400F0021CE8D2AF90046953
:101ED400E024FFF0900468E034FFF0E47E007F002B
:011EE40022DB
:0A30A6008E0F8F108B118A12891310
:1030B000E50F5401FEAF109006ABEEF0FEA3EFF06B
:1030C000FFEF4E601AE5102400FFE50F3402FEEE1C
:1030D000C313FF7E009006ABEEF0A3EFF0800FE588
:1030E0000FC313FF7E009006ABEEF0A3EFF0900647
:1030F000ABE0FEA3E0FF9006ADEEF0A3EFF090068C
:10310000AF7450F0A3E4F09006AFE0FEA3E0FFC37D
:10311000EF94FFEE94EF50759006ABE0FEA3E0FF56
:10312000D3EF9400EE940040649006AFE0FEA3E07D
:10313000FF123E84EF30E0449006AFE0FCA3E0FDD8
:103140009006ABE0FEA3E0FF9006ADE0FAA3E0FB43
:10315000C3EB9FFFEA9EFEEF25E0FFEE33FEAB11CF
:10316000AA12A9138F828E83EC8DF012145690064A
:10317000ACE024FFF09006ABE034FFF09006B0E046
:103180002400F09006AFE03402F00231079006AB65
:10319000E0FEA3E0FFD3EF9400EE94004006E47E4F
:1031A000007F00229006ADE0FEA3E0FFEF25E0FFE8
:1031B000EE33FEAB11AA12A9138F828E83E475F051
:0C31C000001214569006ADE0FEA3E0FFE4
:0131CC0022E0
:103A58009006827450F0A3E4F0900682E0FEA3E0A2
:103A6800FFC3EF94FFEE94EF501B900682E0FEA395
:103A7800E0FF123EAC900683E02400F0900682E05E
:103A88003402F080D47BFF7A2C790C7511507512B2
:103A9800007513327D007C501228AE9000007450DF
:0D3AA800F0A3E4F090045E7452F0A3E4F08B
:013AB50022EE
:060819008B0C8A0D890E14
:10081F00900682E4F0A3E4F0900684E4F07BFF7A84
:10082F002D79ACC003C002C0017B017A067985A87F
:10083F0001AC02AD03D001D002D0037E007F0412C1
:10084F00134B900689E4F090068AE4F090068BE44F
:10085F00F0A3E4F090068DE4F0A3E4F0900000E044
:10086F00FEA3E0FFAB0CAA0DA90E751901121CAA6D
:10087F0090068BEEF0FEA3EFF0FFEF4E601990069F
:10088F008BE0FEA3E0FF123E84EF30E1147BFF7A92
:10089F002C790E123CA2227BFF7A2C791F123CA2DC
:1008AF002290068BE0FEA3E0FF7BFF7A2C790A757E
:1008BF001901121CAAEF4E600A7BFF7A2C792E12B7
:1008CF003CA222123FAA900682E0FCA3E0FD745ED8
:1008DF002DF58274003CF583EFF0900682E0FEA3C5
:1008EF00E0FF745E2FF58274003EF583E0FFEF703A
:1008FF000B7F02123EEFD28F80C980C7900682E035
:10090F00FEA3E0FFC3EF94F4EE940140147BFF7A53
:10091F002C7977123CA27BFF7A2C798A123CA28029
:10092F002D900682E0FEA3E0FF745E2FF582740027
:10093F003EF583E0FFEF641B706D900682E0FEA32F
:10094F00E0FF745E2FF58274003EF583E4F09006AD
:10095F0082E0FEA3E0FF745F2FF58274003EF58303
:10096F00E4F07BFF7A2C799F123CA2123FD49006C1
:10097F0084EFF0900684E0FF123F8C900684E0FF36
:10098F00EFB47705020A7980E2900684E0FFEFB4B6
:10099F00710A7BFF7A2C79A2123CA2227BFF7A2C60
:1009AF0079AD123CA280C4900682E0FEA3E0FF74F2
:1009BF005E2FF58274003EF583E0FFEFB4082E90B2
:1009CF000682E0FEA3E0FFD3EF9400EE9400500305
:1009DF000208D2900683E024FFF0900682E034FFF5
:1009EF00F07BFF7A2C79AD123CA20208D2900682DE
:1009FF00E0FEA3E0FF745E2FF58274003EF583E006
:100A0F00FFEFB40D3D7BFF7A2C799F123CA290062D
:100A1F0083E004F07006900682E004F0900682E016
:100A2F00FEA3E0FF745E2FF58274003EF583740A17
:100A3F00F0900683E004F07006900682E004F00266
:100A4F0008D2900682E0FEA3E0FF745E2FF5827459
:100A5F00003EF583E0FF123F8C900683E004F070B8
:100A6F0006900682E004F00208D2C2AF900469E05B
:100A7F0004F07006900468E004F0900682E0FEA394
:100A8F00E0FF7B017A0679851230A6900689EFF098
:100A9F00FFEF7003020DBD90068BE0FEA3E0FFEFAA
:100AAF00241CFFEE3400FE90068BEEF0A3EFF090C7
:100ABF00068AE4F090068AE0FFEFC39440400302F9
:100ACF000C9E90068AE0FF7E0090068BE0FCA3E070
:100ADF00FDEF2DFFEE3CFE123E84EF64FF6003023C
:100AEF000C9490068DE4F0A3E4F0900689E0FF7E6D
:100AFF000090068DE0FCA3E0FDC3ED9FEC9E40034C
:100B0F00020C9E90068AE0FF7E0090068BE0FCA30D
:100B1F00E0FDEF2DFDEE3CFC90068DE0FEA3E0FF27
:100B2F00EF25E0FFEE33FEED2FFFEC3EFEC006C0DB
:100B3F000790068DE0FEA3E0FFEF25E0FFEE33FE0A
:100B4F0074852FF58274063EF583E0FEA3E0FF7EE9
:100B5F0000AD07D007D006123E5C90068AE0FF7EFC
:100B6F000090068BE0FCA3E0FDEF2DFFEE3CFEEFC7
:100B7F002401FDEE3400FC90068DE0FEA3E0FFEFB4
:100B8F0025E0FFEE33FEED2FFFEC3EFEC006C00763
:100B9F0090068DE0FEA3E0FFEF25E0FFEE33FE743D
:100BAF00852FF58274063EF583E0FEA3E0FFEEFF8E
:100BBF007E00AD07D007D006123E5C90068DE0FE9A
:100BCF00A3E0FFEF25E0FFEE33FE74852FF582746F
:100BDF00063EF583E0FEA3E0FFEEC4540FFF7E0058
:100BEF00EF2430FF123F8C90068DE0FEA3E0FFEF65
:100BFF0025E0FFEE33FE74852FF58274063EF583F4
:100C0F00E0FEA3E0FFEEFF7E00EF540FFFEF243076
:100C1F00FF123F8C90068DE0FEA3E0FFEF25E0FF73
:100C2F00EE33FE74852FF58274063EF583E0FEA346
:100C3F00E0FFEEC4F854F0C868FEEFC4540F48FF4D
:100C4F00EF540FFFEF2430FF123F8C90068DE0FE24
:100C5F00A3E0FFEF25E0FFEE33FE74852FF58274DE
:100C6F00063EF583E0FEA3E0FFEF540FFFEF2430C5
:100C7F00FF123F8C90068EE004F0700690068DE018
:100C8F0004F0020AF990068AE02402F0020AC390E7
:100C9F000689E0FF90068AEFF090068DE4F0A3E45A
:100CAF00F090068AE0FFEF7003020DB290068AE023
:100CBF00FF900689E0FEC3EE9FFFEF25E02485F548
:100CCF0082E43406F583E475F001121440AFF0FEB0
:100CDF007D00123E5C90068AE0FF900689E0FEC31D
:100CEF00EE9FFFEF25E02485F582E43406F583E4DB
:100CFF0075F001121440AFF0FE7D00123E5C9006BD
:100D0F008DE0FEA3E0FF745E2FF58274003EF58345
:100D1F00E0FFEF605C90068DE0FEA3E0FFD3EF9461
:100D2F00FCEE9401504B90068AE0FF900689E0FE9E
:100D3F00C3EE9FFFEF25E02485F582E43406F583AB
:100D4F00E475F001121440AFF0FE90068DE0FCA3A5
:100D5F00E0FD745E2DF58274003CF583E0FD123EDC
:100D6F005C90068EE004F0700690068DE004F08033
:100D7F008D90068AE0FF900689E0FEC3EE9FFFEF9D
:100D8F0025E02485F582E43406F583E475F001123D
:100D9F001440AFF0FE7D00123E5C90068AE014F026
:100DAF00020CB07BFF7A2C799F123CA280097BFF4B
:100DBF007A2C79B1123CA2D2AF900469E024FFF0F3
:070DCF00900468E034FFF01E
:010DD60022FA
:062A60008B0C8A0D890EAB
:102A6600900684E4F0A3E4F0900686E4F0900687EE
:102A7600E4F0A3E4F0900000E0FEA3E0FF900682FD
:102A8600EEF0A3EFF0900682E0FEA3E0FFAB0CAA07
:102A96000DA90E751901121CAA900682EEF0FEA36E
:102AA600EFF0FFEF4E7003022C00900682E0FEA3CB
:102AB600E0FF123E84EF30E10A7BFF7A2C79C612E2
:102AC6003CA222900682E0FEA3E0FFEF241CFFEE6C
:102AD6003400FE900682EEF0A3EFF0900684E4F058
:102AE600A3E4F0900684E0FEA3E0FFC3EF9440EE7B
:102AF60094005091900684E0FEA3E0FF900682E0E9
:102B0600FCA3E0FDED2FFFEC3EFE123E84EFB4FF8A
:102B16000422022BEF900684E0FEA3E0FF900682DB
:102B2600E0FCA3E0FDED2FFFEC3EFEEF2401FFEEFF
:102B36003400FE123E847E00900687EEF0A3EFF08E
:102B4600900687E0FEA3E0FFEF7F00FE900687EE8B
:102B5600F0A3EFF0900687E0FEA3E0FFC006C007F3
:102B6600900684E0FEA3E0FF900682E0FCA3E0FD71
:102B7600ED2FFFEC3EFE123E84EFFD7C00D007D029
:102B860006EE4CFEEF4DFF900687EEF0A3EFF0C287
:102B9600AF900469E004F07006900468E004F090D9
:102BA6000683E02402F0900682E03400F09006826C
:102BB600E0FEA3E0FF123E84900686EFF0FFEF6092
:102BC60018900686E0FF123F8C900683E004F070B2
:102BD60006900682E004F080D4D2AF900469E02427
:102BE600FFF0900468E034FFF0900685E02402F0E0
:102BF600900684E03400F0022AE97BFF7A2C791FE4
:032C0600123CA2DB
:012C090022A8
:0A28AE008B0C8A0D890E8C0F8D1023
:1028B8009006ABE4F0A3E4F0AB0CAA0DA90E7519D1
:1028C80001AF12AE11121CAAEF4E60037F0122E580
:1028D8001065127004E50F65117003022991E51265
:1028E800241CF512E5113400F5119006ABE4F0A3B1
:1028F800E4F09006ABE0FEA3E0FFC3EF9440EE9453
:1029080000400302298E9006ABE0FEA3E0FFE5122B
:102918002FFFE5113EFE123E84EF64FF70579006CC
:10292800ABE0FEA3E0FFE5122FFFE5113EFE7C00C1
:10293800AD10123E5C9006ABE0FEA3E0FFE5122F5F
:10294800FFE5113EFEEF2401FFEE3400FEC006C095
:1029580007E50FFF7E00AD07D007D006123E5C905A
:1029680006ABE4F0A3E4F0E51224E4F512E5113433
:10297800FFF51180149006ACE02402F09006ABE05D
:102988003400F00228FA7F0122AD13AF10AE0F1207
:102998003E5CE5102401FFE50F3400FE7D00123E89
:1029A8005C74022510F510E4350FF50FAB0CAA0D79
:1029B800A90E121371FFEF60359006ABE0FEA3E09D
:1029C800FFE5102FFFE50F3EFEAB0C050EE50EAA46
:1029D8000D7002050D14F9121371FD123E5C90067C
:1029E800ACE004F070069006ABE004F080BE900600
:1029F800ABE0FEA3E0FFE5102FFFE50F3EFE7D00F4
:102A0800123E5C9006ABE4F0A3E4F074142510F5D4
:102A180010E4350FF50F74022510F510E4350FF5A5
:102A28000F7E00AF12AD07AF10AE0F123E5CE5107F
:102A38002401FFE50F3400FEC006C007E511FF7E44
:102A480000AD07D007D006123E5C74022510F510C1
:072A5800E4350FF50F7F00CC
:012A5F002254
:061EE5008E0C8F0D8D0E26
:101EEB00900682E4F0A3E4F0900684E4F0A3E4F01F
:101EFB00900686E4F0E50D241CF50DE50C3400F599
:101F0B000C900682E4F0A3E4F0900682E0FEA3E0DE
:101F1B00FFC3EF9440EE9400400302210D90068224
:101F2B00E0FEA3E0FFE50D2FFFE50C3EFE123E8425
:101F3B00EF64FF70030220FC900682E0FEA3E0FF3B
:101F4B00E50D2FFFE50C3EFEEF2401FFEE3400FE06
:101F5B00123E847E00900684EEF0A3EFF090068490
:101F6B00E0FEA3E0FFEF7F00FE900684EEF0A3EF10
:101F7B00F0900684E0FEA3E0FFC006C00790068247
:101F8B00E0FEA3E0FFE50D2FFFE50C3EFE123E84C5
:101F9B00EFFD7C00D007D006EE4CFEEF4DFF900618
:101FAB0084EEF0A3EFF0E50E70030220AE900684F2
:101FBB00E0FEA3E0FF123E84EF30E10B7BFF7A2CB7
:101FCB0079DB123CA280097BFF7A2C79E3123CA2CD
:101FDB00900684E0FEA3E0FF123E84EF30E50B7B1E
:101FEB00FF7A2C79E9123CA280097BFF7A2C79EFDE
:101FFB00123CA2900684E0FEA3E0FF123E84EF3079
:10200B00E40B7BFF7A2C79F7123CA280097BFF7AD9
:10201B002C79FD123CA2900684E0FEA3E0FF123E59
:10202B0084EF30E30B7BFF7A2D7905123CA28009FC
:10203B007BFF7A2D790B123CA2900684E0FEA3E085
:10204B00FFEEC4540FFF7E00EF2430FF123F8C9045
:10205B000684E0FEA3E0FFEEFF7E00EF540FFFEFE0
:10206B002430FF123F8C900684E0FEA3E0FFEEC409
:10207B00F854F0C868FEEFC4540F48FFEF540FFF3D
:10208B00EF2430FF123F8C900684E0FEA3E0FFEFBD
:10209B00540FFFEF2430FF123F8C7BFF7A2D791307
:1020AB00123CA2900685E02402F0900684E03400F6
:1020BB00F0900684E475F001121440AFF0FE123E6E
:1020CB0084900686EFF0FFEF600A900686E0FF1221
:1020DB003F8C80DD900686E4F0E50E600B7BFF7A8B
:1020EB002C799F123CA280097BFF7A2D7913123C2D
:1020FB00A2900683E02402F0900682E03400F00206
:02210B001F149F
:01210D0022AF
:062DB0008B0C8A0D890E58
:102DB600900682E4F0A3E4F0900684E4F0A3E4F045
:102DC600900000E0FEA3E0FF900682EEF0A3EFF095
:102DD6007BFF7A2D7916C003C002C001AB0CAA0D89
:102DE600A90E8B1D8A1E891FD001D002D003123A6C
:102DF600B6EF7006022EB6022EB67BFF7A2D791933
:102E0600C003C002C001AB0CAA0DA90E8B1D8A1E01
:102E1600891FD001D002D003123AB6EF7006022EF7
:102E2600B6022EB67BFF7A2C790CC003C002C00115
:102E3600AB0CAA0DA90E8B1D8A1E891FD001D002CC
:102E4600D003123AB6EF700C9000007450F0A3E471
:102E5600F07F0022900682E0FEA3E0FFAB0CAA0DF5
:102E6600A90E751901121CAA900682EEF0FEA3EFB8
:102E7600F0FFEF4E602E900682E0FEA3E0FF123ECA
:102E860084EF30E113900682E0FEA3E0FF9000009D
:102E9600EEF0A3EFF07F00227BFF7A2D791D123C26
:102EA600A27F01227BFF7A2D793A123CA27F012272
:102EB600900682E0FEA3E0FFEF2418FFEE3400FE4A
:102EC600900682EEF0A3EFF0900682E0FEA3E0FF0C
:102ED600EF2401FFEE3400FE123E847E009006844D
:102EE600EEF0A3EFF0900684E0FEA3E0FFEF7F0094
:102EF600FE900684EEF0A3EFF0900684E0FEA3E0D9
:102F0600FFC006C007900682E0FEA3E0FF123E84E3
:102F1600EFFD7C00D007D006EE4CFEEF4DFF90068D
:102F260084EEF0A3EFF0900684E0FEA3E0FF9000AD
:082F360000EEF0A3EFF07F00B4
:012F3E002270
:060DD7008B0C8A0D890E51
:100DDD00900682E4F0A3E4F0900684E4F0A3E4F03E
:100DED00900686E4F0A3E4F0900688E4F0A3E4F026
:100DFD0090068AE4F0A3E4F0900000E0FEA3E0FF8B
:100E0D00900682EEF0A3EFF0900682E0FEA3E0FFE5
:100E1D00AB0CAA0DA90E751901121CAA900682EE33
:100E2D00F0FEA3EFF0FFEF4E700302126F900682FB
:100E3D00E0FEA3E0FF123E84EF20E30C7BFF7A2D52
:100E4D007948123CA27F0122900682E0FEA3E0FFCA
:100E5D00123E84EF20E103020FE5900682E0FEA32F
:100E6D00E0FF7BFF7A2C790A751901121CAAEF4E4F
:100E7D00600C7BFF7A2D795B123CA27F01229006DC
:100E8D0082E0FEA3E0FF900686EEF0A3EFF0900067
:100E9D0000E0FEA3E0FFAB0CAA0DA90E7519001220
:100EAD001CAA900682EEF0A3EFF0900688E4F0A362
:100EBD00E4F0900688E0FEA3E0FFC3EF945CEE94AF
:100ECD00004003020F6D900682E0FEA3E0FFEF24C9
:100EDD001CFFEE3400FE900688E0FCA3E0FDEFB5AC
:100EED00053EEEB5043A900688E0FEA3E0FF7402DD
:100EFD002FF582E43400F58374FFF0900689E00449
:100F0D00F07006900688E004F0900688E0FEA3E0FD
:100F1D00FF74022FF582E43400F58374FFF0802F07
:100F2D00900688E0FEA3E0FF900000E0FCA3E0FD4A
:100F3D00ED2FFFEC3EFE123E84900688E0FCA3E010
:100F4D00FDAE0574022EF582E43400F583EFF090CA
:100F5D000689E004F07006900688E004F0020EBFEA
:100F6D00900000E0FEA3E0FF123EAC900688E4F096
:100F7D00A3E4F0900688E0FEA3E0FFC3EF945CEEDF
:100F8D009400503D900688E0FEA3E0FF900000E045
:100F9D00FCA3E0FDED2FFFEC3EFE900688E0FCA3E8
:100FAD00E0FD74022DF582E43400F583E0FD123E80
:100FBD005C900689E004F07006900688E004F080ED
:100FCD00B27BFF7A2C799F123CA2900686E0FEA39D
:100FDD00E0FF123EAC7F0022900682E0FEA3E0FF10
:100FED00EF241CFFEE3400FE900682EEF0A3EFF02E
:100FFD00900688E4F0A3E4F0900688E0FEA3E0FFFD
:10100D00C3EF9440EE940040030210F2900688E086
:10101D00FEA3E0FF900682E0FCA3E0FDED2FFFECC8
:10102D003EFE123E84EFB4FF060210F20210E19074
:10103D000688E0FEA3E0FF900682E0FCA3E0FDED54
:10104D002FFFEC3EFEEF2401FFEE3400FE123E8436
:10105D007E00900684EEF0A3EFF0900684E0FEA3F0
:10106D00E0FFEF7F00FE900684EEF0A3EFF0900618
:10107D0084E0FEA3E0FFC006C007900688E0FEA353
:10108D00E0FF900682E0FCA3E0FDED2FFFEC3EFEBD
:10109D00123E84EFFD7C00D007D006EE4CFEEF4DE6
:1010AD00FF900684EEF0A3EFF0C2AF900469E00468
:1010BD00F07006900468E004F0900684E0FEA3E072
:1010CD00FF123EACD2AF900469E024FFF0900468AB
:1010DD00E034FFF0900689E02402F0900688E034B9
:1010ED0000F0021005C2AF900469E004F0700690A4
:1010FD000468E004F0900000E0FEA3E0FFAB0CAA52
:10110D000DA90E751901121CAA900686EEF0A3EF1B
:10111D00F0900000E0FEA3E0FFAB0CAA0DA90E7548
:10112D001900121CAA900682EEF0A3EFF09006882B
:10113D00E4F0A3E4F0900688E0FEA3E0FFC3EF9493
:10114D005CEE940040030211F0900682E0FEA3E0F5
:10115D00FFEF241CFFEE3400FE900688E0FCA3E0B8
:10116D00FDEFB5053EEEB5043A900688E0FEA3E02E
:10117D00FF74022FF582E43400F58374FFF09006BE
:10118D0089E004F07006900688E004F0900688E08F
:10119D00FEA3E0FF74022FF582E43400F58374FFA3
:1011AD00F0802F900688E0FEA3E0FF900000E0FCA9
:1011BD00A3E0FDED2FFFEC3EFE123E84900688E08D
:1011CD00FCA3E0FDAE0574022EF582E43400F58338
:1011DD00EFF0900689E004F07006900688E004F0C8
:1011ED00021142900000E0FEA3E0FF123EAC90061B
:1011FD0088E4F0A3E4F0900688E0FEA3E0FFC3EFDF
:10120D00945CEE9400503D900688E0FEA3E0FF90C4
:10121D000000E0FCA3E0FDED2FFFEC3EFE90068804
:10122D00E0FCA3E0FD74022DF582E43400F583E0CB
:10123D00FD123E5C900689E004F07006900688E091
:10124D0004F080B2900686E0FEA3E0FF123EACD221
:10125D00AF900469E024FFF0900468E034FFF07F64
:0D126D0000227BFF7A2D7996123CA27F01B2
:01127A002251
:103E0300C0F9A4B0999282F88090FFF0F1F2F3F434
:103E1300F501020408102040803F065B4F666D7D6C
:0D3E2300077F6F777C395E7971FEFDFBF73C
:103F23008E498F4AE54A154AAE4970021549FFEF9B
:043F33004E70F122B9
:10210E008E2C8F2D8C2E8D2F8B308A318932C3E5FC
:10211E002D952FFFE52C952EFEEF4E700302221A01
:10212E00AE2CAF2DE4FCFD7BA07A867901780012EF
:10213E003BE4AB30AA31A932EF1213B7AE2CAF2D60
:10214E00E4FCFD7BA07A8679017800123BE4AC00BA
:10215E00AD01AE02AF037B107A2779007800123BF7
:10216E00E4AB30AA31A932758201758300EF1213E8
:10217E00C9AE2CAF2D7C277D101213EB7E037FE8AA
:10218E00CFCDCFCECCCE1213EBAB30AA31A9327558
:10219E008202758300EF1213C9AE2CAF2D7C037D26
:1021AE00E81213EB7E007F64CFCDCFCECCCE1213D0
:1021BE00EBAB30AA31A932758203758300EF12138F
:1021CE00C9AE2CAF2D7C007D641213EB7E007F0A0E
:1021DE00CFCDCFCECCCE1213EBAB30AA31A9327508
:1021EE008204758300EF1213C9AE2CAF2D7C007DD7
:1021FE000A1213EBAF05AB30AA31A9327582057501
:10220E008300EF1213C9852C2E852D2FAB30AA31EA
:10221E00A932121371FFEF903E0393FF8F8043A0FC
:10222E0007903E0EE493FFEF52A07F017E00123F17
:10223E0023AB30AA31A93275820175830012138A3D
:10224E00FFEF903E0393FF8F8043A007903E0FE475
:10225E0093FFEF52A07F017E00123F23AB30AA31D5
:10226E00A93275820275830012138AFFEF903E0326
:10227E0093FF8F8043A007903E10E493FFEF52A090
:10228E007F017E00123F23AB30AA31A93275820343
:10229E0075830012138AFFEF903E0393FF8F8043E6
:1022AE00A007903E11E493FFEF52A07F017E001233
:1022BE003F23AB30AA31A932758204758300121305
:1022CE008AFFEF903E0393FF8F8043A007903E124C
:1022DE00E493FFEF52A07F017E00123F23AB30AAA2
:1022EE0031A93275820575830012138AFFEF903E75
:1022FE000393FF8F8043A007903E13E493FFEF52AA
:09230E00A07F017E00123F232292
:082F3F008F248E238D228C21CA
:102F47007BA07A8679017800AF24AE23AD22AC212D
:102F570012150E8F267BA07A8679017800AF24AEF2
:102F670023AD22AC2112150EAC00AD01AE02AF03AA
:102F77007B107A277900780012150E8F277B107A3D
:102F87002779007800AF24AE23AD22AC2112150EAD
:102F9700AC00AD01AE02AF037BE87A03790078009D
:102FA70012150E8F287BE87A0379007800AF24AEDC
:102FB70023AD22AC2112150EAC00AD01AE02AF035A
:102FC7007B647A007900780012150E8F297B647A6A
:102FD7000079007800AF24AE23AD22AC2112150E84
:102FE700AC00AD01AE02AF037B0A7A00790078002E
:102FF70012150E8F2A7B0A7A0079007800AF24AE6B
:1030070023AD22AC2112150EAC00AD01AE02AF0309
:103017008F2BE5251215FF303400304701305A0257
:10302700306D03308004309305000030A5903E0ECC
:10303700E493FF8FA0AF26EF903E0393FF8F80228C
:10304700903E0FE493FF8FA0AF27EF903E0393FFCF
:103057008F8022903E10E493FF8FA0AF28EF903E21
:103067000393FF8F8022903E11E493FF8FA0AF2937
:10307700EF903E0393FF8F8022903E12E493FF8FE1
:10308700A0AF2AEF903E0393FF8F8022903E13E478
:0E30970093FF8FA0AF2BEF903E0393FF8F802F
:0130A5002208
:03000000023705BF
:0C370500787FE4F6D8FD7581E102374CB6
:10127B00E709F608DFFA8046E709F208DFFA803E55
:10128B0088828C83E709F0A3DFFA8032E309F60842
:10129B00DFFA8078E309F208DFFA807088828C83AA
:1012AB00E309F0A3DFFA806489828A83E0A3F6085E
:1012BB00DFFA805889828A83E0A3F208DFFA804C38
:1012CB0080D280FA80C680D4806980F2803380100F
:1012DB0080A680EA809A80A880DA80E280CA803378
:1012EB0089828A83ECFAE493A3C8C582C8CCC583F0
:1012FB00CCF0A3C8C582C8CCC583CCDFE9DEE780C0
:10130B000D89828A83E493A3F608DFF9ECFAA9F03E
:10131B00EDFB2289828A83ECFAE0A3C8C582C8CC94
:10132B00C583CCF0A3C8C582C8CCC583CCDFEADEAD
:10133B00E880DB89828A83E493A3F208DFF980CC0F
:10134B0088F0EF60010E4E60C388F0ED2402B40408
:10135B000050B9F582EB2402B4040050AF232345AF
:06136B0082239012CB73F7
:10137100BB010689828A83E0225002E722BBFE027A
:09138100E32289828A83E49322AD
:10138A00BB010CE58229F582E5833AF583E0225018
:10139A0006E92582F8E622BBFE06E92582F8E22262
:0D13AA00E58229F582E5833AF583E493227C
:1013B700BB010689828A83F0225002F722BBFE0115
:0213C700F3220F
:1013C900F8BB010DE58229F582E5833AF583E8F05A
:1013D900225006E92582C8F622BBFE05E92582C806
:0213E900F222EE
:1013EB00BC000BBE0029EF8DF084FFADF022E4CCE6
:1013FB00F875F008EF2FFFEE33FEEC33FCEE9DECAF
:10140B00984005FCEE9DFE0FD5F0E9E4CEFD22EDF4
:10141B00F8F5F0EE8420D21CFEADF075F008EF2F3E
:10142B00FFED33FD4007985006D5F0F222C398FD2F
:05143B000FD5F0EA22CC
:10144000A3F8E0C5F025F0F0E5821582700215835F
:06145000E0C838F0E822BC
:10145600F8BB0111E58229F582E5833AF583E8F0C8
:10146600E5F0A3F0225009E92582C8F608A6F02285
:0D147600BBFE09E92582C8F2E5F008F2226C
:10148300E88FF0A4CC8BF0A42CFCE98EF0A42CFC08
:101493008AF0EDA42CFCEA8EF0A4CDA8F08BF0A486
:1014A3002DCC3825F0FDE98FF0A42CCD35F0FCEBE5
:1014B3008EF0A4FEA9F0EB8FF0A4CFC5F02ECD39AA
:0F14C300FEE43CFCEAA42DCE35F0FDE43CFC2217
:1014D20075F008758200EF2FFFEE33FECD33CDCCD1
:1014E20033CCC58233C5829BED9AEC99E582984054
:1014F2000CF582EE9BFEED9AFDEC99FC0FD5F0D631
:10150200E4CEFBE4CDFAE4CCF9A88222B800C1B95A
:101512000059BA002DEC8BF084CFCECDFCE5F0CB98
:10152200F97818EF2FFFEE33FEED33FDEC33FCEBD1
:1015320033FB10D703994004EB99FB0FD8E5E4F98C
:10154200FA227818EF2FFFEE33FEED33FDEC33FC79
:10155200C933C910D7059BE99A4007EC9BFCE99A6D
:10156200F90FD8E0E4C9FAE4CCFB2275F010EF2FB2
:10157200FFEE33FEED33FDCC33CCC833C810D707B2
:101582009BEC9AE899400AED9BFDEC9AFCE899F8ED
:0E1592000FD5F0DAE4CDFBE4CCFAE4C8F92280
:103BE400C2D5E830E70FB2D5E4C39BFBE49AFAE40C
:103BF40099F9E498F8EC30E717B2D5123C1A12158B
:103C04000EE4C39BFBE49AFAE499F9E498F8800380
:103C140012150E30D50DE4C39FFFE49EFEE49DFD16
:043C2400E49CFC22FE
:1015A000EB9FF5F0EA9E42F0E99D42F0EC6480C8C2
:0615B00064809845F02262
:0C15B600ECF0A3EDF0A3EEF0A3EFF022A8
:1015C200A8828583F0D083D0821215D91215D91240
:1015D20015D91215D9E473E493A3C583C5F0C58365
:1015E200C8C582C8F0A3C583C5F0C583C8C582C873
:0115F20022D6
:0C15F300A42582F582E5F03583F5832203
:1015FF00D083D082F8E4937012740193700DA3A37B
:10160F0093F8740193F5828883E47374029368608E
:06161F00EFA3A3A380DF8E
:103711000233E8E493A3F8E493A34003F68001F2B3
:1037210008DFF48029E493A3F85407240CC8C333B9
:10373100C4540F4420C8834004F456800146F6DF88
:10374100E4800B0102040810204080903DA7E47E34
:10375100019360BCA3FF543F30E509541FFEE4937D
:10376100A360010ECF54C025E060A840B8E493A344
:10377100FAE493A3F8E493A3C8C582C8CAC583CA6F
:10378100F0A3C8C582C8CAC583CADFE9DEE780BE27
:013DD50000ED
:00000001FF
