:070EED0044013D000000007C
:100C8B007519007518C27517017516007F187E004F
:100C9B001209CD7F107E27120DE6C2AFC29175A04F
:100CAB00061210EB7BFF7A00791EAC02AD017B00C4
:100CBB007A007F031204AA7BFF7A10799DAC02ADF8
:100CCB00017B007A007F021204AA7BFF7A0B796703
:100CDB00AC02AD017B007A007F011204AA7BFF7A84
:100CEB000879F6AC02AD017B007A007F001204AAF2
:060CFB00120F2280FE2210
:03002300020019BF
:0100190032B4
:050EF40042014403E887
:040F8A008E3D8F3ECB
:100F8E00E53E153EAE3D7002153DFFEF4E601E90E4
:100F9E00014474FF75F0FF1200F5AFF0FEEF4E70D6
:0D0FAE00EE9001447403F0A374E8F080D3CA
:010FBB002213
:01001A0022C3
:100F57008E3F8F40E5401540AE3F7002153FFFEFD3
:100F67004E601F00000000000000000000000000AD
:100F7700000000000000000000000000000000006A
:030F870080D222F3
:100FED008E348F358D36538700E58720E51E75C706
:100FFD000143C78075C502E534FF7E008FC385357B
:0D100D00C48536C275C65A75C6A5000022FE
:04101A008E378F3846
:10101E00538700E58720E51E75C70143C78075C558
:10102E0001E537FF7E008FC38538C475C65A75C675
:08103E00A5000085C239AF399D
:011046002287
:101047008E418F42538700E58720E51E75C7014310
:10105700C78075C503E541FF7E008FC37E00AF42A1
:0B1067008FC475C65A75C6A500002294
:1010C700C0F9A4B0999282F88090F0F1F2F3F4F5A8
:1010D7003F065B4F666D7D077F6F777C395E797161
:0410E700FEFDFBF718
:1002A1008E218F228C238D248B258A268927C3E5D5
:1002B100229524FFE5219523FEEF4E70030203AD45
:1002C100AE21AF22E4FCFD7BA07A86790178001291
:1002D1000E2FAB25AA26A927EF12006CAE21AF2263
:1002E100E4FCFD7BA07A8679017800120E2FAC0028
:1002F100AD01AE02AF037B107A2779007800120EB0
:100301002FAB25AA26A927758201758300EF12005C
:100311007EAE21AF227C277D101200A07E037FE8F4
:10032100CFCDCFCECCCE1200A0AB25AA26A9277562
:100331008202758300EF12007EAE21AF227C037D25
:10034100E81200A07E007F64CFCDCFCECCCE1200CC
:10035100A0AB25AA26A927758203758300EF120099
:100361007EAE21AF227C007D641200A07E007F0A58
:10037100CFCDCFCECCCE1200A0AB25AA26A9277512
:100381008204758300EF12007EAE21AF227C007DD6
:100391000A1200A0AF05AB25AA26A927758205750B
:1003A1008300EF12007E852123852224AB25AA2616
:1003B100A927120026FFEF9010C793FF8F8043A05B
:1003C100079010D1E493FFEF52A07F017E00120F3E
:1003D1008AAB25AA26A92775820175830012003FE1
:1003E100FFEF9010C793FF8F8043A0079010D2E4D6
:1003F10093FFEF52A07F017E00120F8AAB25AA2640
:10040100A92775820275830012003FFFEF9010C784
:1004110093FF8F8043A0079010D3E493FFEF52A086
:100421007F017E00120F8AAB25AA26A927758203B8
:1004310075830012003FFFEF9010C793FF8F804339
:10044100A0079010D4E493FFEF52A07F017E001229
:100451000F8AAB25AA26A92775820475830012008D
:100461003FFFEF9010C793FF8F8043A0079010D5F7
:10047100E493FFEF52A07F017E00120F8AAB25AA01
:1004810026A92775820575830012003FFFEF9010A2
:10049100C793FF8F8043A0079010D6E493FFEF52DC
:0904A100A07F017E00120F8A22E7
:080633008F0B8E0A8D098C0863
:10063B007BA07A8679017800AF0BAE0AAD09AC08C6
:10064B001201968F0D7BA07A8679017800AF0BAEE5
:10065B000AAD09AC08120196AC00AD01AE02AF03B6
:10066B007B107A27790078001201968F0E7B107A17
:10067B002779007800AF0BAE0AAD09AC08120196D2
:10068B00AC00AD01AE02AF037BE87A0379007800D2
:10069B001201968F0F7BE87A0379007800AF0BAECF
:1006AB000AAD09AC08120196AC00AD01AE02AF0366
:1006BB007B647A00790078001201968F107B647A44
:1006CB000079007800AF0BAE0AAD09AC08120196A9
:1006DB00AC00AD01AE02AF037B0A7A007900780063
:1006EB001201968F117B0A7A0079007800AF0BAE5E
:1006FB000AAD09AC08120196AC00AD01AE02AF0316
:10070B008F12E50C12027B072800073B01074E02F4
:10071B00076103077404078705000007999010D140
:10072B00E493FF8FA0AF0DEF9010C793FF8F802244
:10073B009010D2E493FF8FA0AF0EEF9010C793FFF2
:10074B008F80229010D3E493FF8FA0AF0FEF901008
:10075B00C793FF8F80229010D4E493FF8FA0AF102C
:10076B00EF9010C793FF8F80229010D5E493FF8FEB
:10077B00A0AF11EF9010C793FF8F80229010D6E49B
:0E078B0093FF8FA0AF12EF9010C793FF8F80E7
:01079900223D
:1009CD008E148F15439850438E05AF19AE18AD1781
:1009DD00AC167B647A00790078001201968F198E1F
:1009ED00188D178C16AB19AA18A917A8167F907E0B
:1009FD00D07D037C00120196A804A905AA06AB07B9
:100A0D00AE14AF15E4FCFD12010B7B647A00790086
:100A1D007800120196A804A905AA06AB07C3E49BAA
:100A2D00FFE49AFE740199FDE498FC7B007A01794C
:100A3D000078001201968FD6AB19AA18A917A8161F
:100A4D007F907ED07D037C00120196A804A905AA93
:100A5D0006AB07AE14AF15E4FCFD12010B7B647AF7
:100A6D000079007800120196A804A905AA06AB0723
:100A7D00C3E49BFFE49AFE740199FDE498FCEF54E6
:100A8D00FFFFEE5400FEED5400FDEC5400FC8FD73B
:060A9D00438E10D2AF22CF
:10113B00759850438E01438E0475D7CC75D6FF43FB
:03114B008E1022E1
:0F115E008F1AC2AF851A993099FDC299D2AF226C
:101072008B178A188919AB17AA18A919120026FF0B
:10108200EF6017AB170519E519AA187002051814B5
:0B109200F9120026FF12115E80DC2224
:10114E008B148A158916AB14AA15A91612107222C1
:0B116D00309805C298AF99227F002245
:081183003098FDC298AF9922DB
:040DE6008E148F15C3
:100DEA00AE14AF15E4FCFD7B007A8079007800C36D
:100DFA00120228401EE51525E0FFE51433FEC3E480
:100E0A009FF517E49EF516E516FF7E008F8D851770
:100E1A008B8006758D00758B00538EBF53890F43E7
:040E2A008900C28FEA
:010E2E0022A1
:040E73008E288F290D
:100E7700AE28AF29E4FCFD7B007A8079007800C3B7
:100E8700120228401DE52925E0FFE52833FEC3E4CB
:100E97009FF52BE49EF52AE52AFF7E008F8D852B93
:080EA7008B22758D00758B0094
:010EAF002220
:040D4F008E2C8F2D2A
:100D5300AE2CAF2DE4FCFD7B007A8079007800C3D4
:100D6300120228401EE52D25E0FFE52C33FEC3E4E7
:100D73009FF52FE49EF52EE52EFF7E008F8C852FA9
:100D83008A8006758C00758A00538EBF53890F4382
:080D93008900D2A9D28CD2AF75
:010D9B002235
:040EB0008E308F31C0
:100EB400AE30AF31E4FCFD7B007A8079007800C36A
:100EC400120228401DE53125E0FFE53033FEC3E47E
:100ED4009FF533E49EF532E532FF7E008F8C853337
:080EE4008A22758C00758A005A
:010EEC0022E3
:100EF9004100040044010700000000420005000011
:0F0F090044000000000000C100013A00013B005D
:100FBC008E148F15AE14AF157C007D0A1200A08E16
:100FCC00148F15AF15121122900004E0FFEF75F08D
:100FDC000AA42410F582E43401F583E0FFEF70E8F5
:010FEC0022E2
:1010EB00900004E4F090010712024A000000009007
:0C10FB00000012024A00000000C20022A7
:100F2200900004E0FFEF75F00AA42411F582E43486
:100F320001F583E024F3F0900004E0FFEF75F00A7E
:100F4200A42411F582E43401F583E0FF8F81D28E6F
:050F5200D2ABD2AF227A
:10110700C2AF900004E0FFEF75F00AA42411F58246
:0B111700E43401F583E581F0D2AF2243
:0A04AA008F148C158D168A178B181D
:1004B400C2AF900006E004F07006900005E004F07E
:1004C400753A00E53AC394054003020620AF3A7436
:1004D400017E00A807088005C333CE33CED8F9FFC8
:1004E400EE3395E0FDFC900107E0F8A3E0F9A3E00A
:1004F400FAA3E0FBEF5BFFEE5AFEED59FDEC58FC6E
:10050400EC4D4E4F600302061BAF3AEF75F023A487
:100514002443F8AF008F3C753B00E53BC394235064
:100524000FAF3CA807AF3BE82FF87600053B80EA05
:10053400AF3AEF75F00AA42411F582E43401F5838F
:10054400E53CF07E00AF16AE3CA806A607AF3AEF36
:1005540075F00AA42411F582E43401F583E004F073
:10056400E515FF7E00AE3CA806E804F8A607AF3AFE
:10057400EF75F00AA42411F582E43401F583E02434
:100584000DF0AF3AEF75F00AA4240EF582E43401BD
:10059400F583E514F0AE17AF18AA06A9077B01AFDF
:1005A4003AEF75F00AA42412F582E43401F583EBE2
:1005B400F0A3EAF0A3E9F0900107E0FCA3E0FDA3B7
:1005C400E0FEA3E0FFC004C005C006C007AF3A7454
:1005D400017E00A807088005C333CE33CED8F9FFC7
:1005E400AB07AA06EA3395E0F9F8D007D006D005A0
:1005F400D004EF4BFFEE4AFEED49FDEC48FC9001C0
:100604000712023ED2AF900006E024FFF0900005EE
:10061400E034FFF07F0022053A0204C7D2AF900015
:0E06240006E024FFF0900005E034FFF07F01B7
:0106320022A5
:03001B0002079A3F
:10079A00C0E0C0F0C083C082C0D075D000C000C025
:0D07AA0001C002C003C004C005C006C007A6
:1007B700751300C2AFC28F900004E0FFEF75F00A17
:1007C700A42411F582E43401F583E581F090000457
:1007D700E4F0751301E513C39405400302089AAFCB
:1007E7001374017E00A807088005C333CE33CED823
:1007F700F9FFEE3395E0FDFC900107E0F8A3E0F97F
:10080700A3E0FAA3E0FBEF5BFFEE5AFEED59FDEC28
:1008170058FCEC4D4E4F6076900004E0FFEF75F00A
:100827000AA4240EF582E43401F583E0FFAE13EE4B
:1008370075F00AA4240EF582E43401F583E0FEEE98
:10084700C39F504AAF13EF75F00AA42410F582E452
:100857003401F583E0FFEF6015AF13EF75F00AA4DD
:100867002410F582E43401F583E014F08020AF13FF
:10087700EF75F00AA4240FF582E43401F583E0FF55
:10088700EFB4010480088006900004E513F0051317
:100897000207DC900004E0FFEF75F00AA42411F5CD
:1008A70082E43401F583E0FF8F81900000E0FCA330
:1008B700E0FDA3E0FEA3E0FF7B017A00790078006A
:1008C700EF2BFFEE3AFEED39FDEC38FC90000012FD
:0408D700023ED2AF5C
:1008DB00D007D006D005D004D003D002D001D00071
:0B08EB00D0D0D082D083D0F0D0E0321B
:101122008F16900004E0FFEF75F00AA42410F582F8
:09113200E43401F583E516F02216
:0B1178007B007A007943AF018F8122D9
:100AA30023000D0A546F6F206D75636820776F7292
:100AB30064730D0A00506C6561736520696E70750F
:100AC3007420796F757220636F6D6D6F6E64206132
:100AD3006761696E20616E6420646F6E7427742091
:100AE300696E70757420746F6F206D7563680D0A7D
:100AF30023000D0A007465737400596F7520646FC9
:100B030020612027746573742720636F6D6D6F6E8A
:100B130064006B696C6C00596F7520646F206120F1
:100B2300276B696C6C2720636F6D6D6F6E642C206F
:100B3300706C6561736520696E7075742074686587
:100B430020706964206E756D626572003A20756E5F
:100B5300646566696E656420636F6D6D6F6E6400B6
:040B63000D0A230054
:090F1800410143004201410000C7
:100003009001437401F0900143E0FFEF60077F022A
:0600130012112280F1220F
:10109D009001487401F07580017FE87E03120FBC4A
:1010AD00E580B480057580018006E58025E0F5803A
:0910BD007F327E00120FBC80E7B7
:0110C6002207
:03001E0080FE223F
:1008F6007BFF7A0A79A312114E12116D900141E025
:10090600FCA3E0FDAE0574072EF582E43400F58302
:10091600EFF0900141E0FEA3E0FF74072FF582E4BB
:100926003400F583E0FFEF70097F0212112280C9BF
:1009360080C7900141E0FEA3E0FFC3EF94FEEE9472
:1009460000401C7BFF7A0A79A512114E7BFF7A0ABA
:1009560079B812114E900141E4F0A3E4F0809A9028
:100966000141E0FEA3E0FF74072FF582E43400F5B1
:1009760083E0FFEFB40D27900141E0FEA3E0FF7492
:10098600072FF582E43400F583E4F0900123E4F0C8
:10099600120003900141E4F0A3E4F00208FF900185
:1009A60041E0FEA3E0FF74072FF582E43400F583EF
:1009B600E0FF12115E900142E004F07006900141E2
:0609C600E004F00208FF4E
:0109CC002208
:100B67007BFF7A0A79F51210727BFF7A0A79F8C04F
:100B770003C002C0017B017A0079078B178A1889A5
:100B870019D001D002D003120D01EF700B7BFF7A51
:100B97000A79FD12107280417BFF7A0B7915C00329
:100BA700C002C0017B017A0079078B178A1889195F
:100BB700D001D002D003120D01EF700B7BFF7A0B2F
:100BC700791A12107280127B017A0079071210725B
:100BD7007BFF7A0B794F1210727BFF7A0B796312C6
:100BE7001072900143E4F09001237401F07F0A7EB4
:080BF70000120FBC020B672283
:0A0D9C008B1B8A1C891D8C1E8D1F05
:100DA600900146E4F0A3E4F0900146E0FEA3E0FFE4
:100DB600C3EF951FEE951E5026AB1BAA1CA91D90CE
:100DC6000146E0FEA3E0FF8F828E83E412007E9050
:0F0DD6000147E004F07006900146E004F080C988
:010DE50022EB
:100D01008B148A158916AB14AA15A916120026FF91
:100D1100EF700DAB17AA18A919120026FFEF602B6F
:100D2100AB170519E519AA187002051814F9120074
:100D310026FFAB140516E516AA157002051514F960
:0E0D4100120026FEEE6F60BE7F01227F0022B0
:03000000020BFFF1
:0C0BFF00787FE4F6D8FD7581F1020C4609
:10002600BB010689828A83E0225002E722BBFE02D8
:09003600E32289828A83E493220B
:10003F00BB010CE58229F582E5833AF583E0225076
:10004F0006E92582F8E622BBFE06E92582F8E222C0
:0D005F00E58229F582E5833AF583E49322DA
:10006C00BB010689828A83F0225002F722BBFE0173
:02007C00F3226D
:10007E00F8BB010DE58229F582E5833AF583E8F0B8
:10008E00225006E92582C8F622BBFE05E92582C864
:02009E00F2224C
:1000A000BC000BBE0029EF8DF084FFADF022E4CC44
:1000B000F875F008EF2FFFEE33FEEC33FCEE9DEC0D
:1000C000984005FCEE9DFE0FD5F0E9E4CEFD22ED53
:1000D000F8F5F0EE8420D21CFEADF075F008EF2F9D
:1000E000FFED33FD4007985006D5F0F222C398FD8E
:0500F0000FD5F0EA222B
:1000F500A3F8E0C5F025F0F0E582158270021583BE
:06010500E0C838F0E8221A
:10010B00E88FF0A4CC8BF0A42CFCE98EF0A42CFC93
:10011B008AF0EDA42CFCEA8EF0A4CDA8F08BF0A411
:10012B002DCC3825F0FDE98FF0A42CCD35F0FCEB70
:10013B008EF0A4FEA9F0EB8FF0A4CFC5F02ECD3935
:0F014B00FEE43CFCEAA42DCE35F0FDE43CFC22A2
:10015A0075F008758200EF2FFFEE33FECD33CDCC5C
:10016A0033CCC58233C5829BED9AEC99E5829840DF
:10017A000CF582EE9BFEED9AFDEC99FC0FD5F0D6BC
:10018A00E4CEFBE4CDFAE4CCF9A88222B800C1B9E6
:10019A000059BA002DEC8BF084CFCECDFCE5F0CB24
:1001AA00F97818EF2FFFEE33FEED33FDEC33FCEB5D
:1001BA0033FB10D703994004EB99FB0FD8E5E4F918
:1001CA00FA227818EF2FFFEE33FEED33FDEC33FC05
:1001DA00C933C910D7059BE99A4007EC9BFCE99AF9
:1001EA00F90FD8E0E4C9FAE4CCFB2275F010EF2F3E
:1001FA00FFEE33FEED33FDCC33CCC833C810D7073E
:10020A009BEC9AE899400AED9BFDEC9AFCE899F878
:0E021A000FD5F0DAE4CDFBE4CCFAE4C8F9220B
:100E2F00C2D5E830E70FB2D5E4C39BFBE49AFAE4EE
:100E3F0099F9E498F8EC30E717B2D5120E65120164
:100E4F0096E4C39BFBE49AFAE499F9E498F88003DB
:100E5F0012019630D50DE4C39FFFE49EFEE49DFD85
:040E6F00E49CFC22E1
:10022800EB9FF5F0EA9E42F0E99D42F0EC6480C84D
:0602380064809845F022ED
:0C023E00ECF0A3EDF0A3EEF0A3EFF02233
:10024A00A8828583F0D083D08212026112026112E1
:10025A000261120261E473E493A3C583C5F0C58306
:10026A00C8C582C8F0A3C583C5F0C583C8C582C8FE
:01027A002261
:10027B00D083D082F8E4937012740193700DA3A312
:10028B0093F8740193F5828883E473740293686026
:06029B00EFA3A3A380DF26
:100C0B00020C8BE493A3F8E493A34003F68001F268
:100C1B0008DFF48029E493A3F85407240CC8C333EA
:100C2B00C4540F4420C8834004F456800146F6DFB9
:100C3B00E4800B0102040810204080900EEDE47E4E
:100C4B00019360BCA3FF543F30E509541FFEE493AE
:100C5B00A360010ECF54C025E060A840B8E493A375
:100C6B00FAE493A3F8E493A3C8C582C8CAC583CAA0
:100C7B00F0A3C8C582C8CAC583CADFE9DEE780BE58
:010F210000CF
:00000001FF
