:100B5B00546F6F206D75636820776F7264730D0A25
:100B6B0000506C6561736520646F75626C65206302
:100B7B006C69636B2074686520275350414345278C
:100B8B00206B657920746F20656E6420696E7075BB
:100B9B00740D0A000D0A446F20636F6D6D6F6E64E8
:030BAB000D0A0030
:0B0AFF004401390000000041013800F4
:0300160080FE2247
:03001E0080FE223F
:10095500120EFF900138E0FE74072EF582E4340094
:10096500F583EFF0900138E0FF74072FF582E4344A
:1009750000F583E0FFEF70097F02120EB480D1808D
:10098500CF900138E0FFEFC394FD40147BFF7A0B55
:10099500795B120EE07BFF7A0B796C120EE080B06A
:1009A500900138E0FF74062FF582E43400F583E00A
:1009B500FFEFB42025900138E0FF74072FF582E49E
:1009C5003400F583E0FFEFB420107BFF7A0B799FAD
:1009D500120E52900138E4F08014900138E0FF7453
:1009E500072FF582E43400F583E0FF120EF0900145
:0709F50038E004F00209558F
:0109FC0022D8
:1000030090013F7401F06380FF7FD07E07120D9C47
:0200130080F477
:0100150022C8
:100A89007519007518C27517017516007F187E0053
:100A990012087F7F107E27120BFBC2AFC29175A08F
:100AA90006120E7D7BFF7A00791EAC02AD017B0038
:100AB9007A007F031205E87BFF7A007916AC02AD54
:100AC900017B007A007F021205E87BFF7A00790337
:100AD900AC02AD017B007A007F011205E87BFF7A49
:100AE900097955AC02AD017B007A007F001205E857
:060AF900120D0280FE2236
:03002300020019BF
:0100190032B4
:050B0A0042013D03E87B
:040D6A008E5D8F5EAD
:100D6E00E55E155EAE5D7002155DFFEF4E601E9086
:100D7E00013D74FF75F0FF1200F5AFF0FEEF4E70FF
:0D0D8E00EE90013D7403F0A374E8F080D3F3
:010D9B002235
:01001A0022C3
:100D37008E5F8F60E5601560AE5F7002155FFFEF35
:100D47004E601F00000000000000000000000000CF
:100D5700000000000000000000000000000000008C
:030D670080D22215
:100DCD008E548F558D56538700E58720E51E75C7C8
:100DDD000143C78075C502E554FF7E008FC385555D
:0D0DED00C48556C275C65A75C6A500002201
:040DFA008E578F5829
:100DFE00538700E58720E51E75C70143C78075C57B
:100E0E0001E557FF7E008FC38558C475C65A75C657
:080E1E00A5000085C259AF597F
:010E260022A9
:100E27008E618F62538700E58720E51E75C70143F2
:100E3700C78075C503E561FF7E008FC37E00AF6283
:0B0E47008FC475C65A75C6A5000022B6
:100B0F000A21C0F9A4B0999282F88090062BF0F1D7
:100B1F00F2F3F4F510313F065B4F666D7D077F6F83
:0C0B2F00777C395E79710441FEFDFBF714
:1002A1008E458F468C478D488B498A4A894BC3E5D9
:1002B100469548FFE5459547FEEF4E70030203ADB5
:1002C100AE45AF46E4FCFD7BA07A86790178001249
:1002D1000C44AB49AA4AA94BEF12006CAE45AF469C
:1002E100E4FCFD7BA07A8679017800120C44AC0015
:1002F100AD01AE02AF037B107A2779007800120CB2
:1003010044AB49AA4AA94B758201758300EF1200DB
:100311007EAE45AF467C277D101200A07E037FE8AC
:10032100CFCDCFCECCCE1200A0AB49AA4AA94B75F6
:100331008202758300EF12007EAE45AF467C037DDD
:10034100E81200A07E007F64CFCDCFCECCCE1200CC
:10035100A0AB49AA4AA94B758203758300EF12002D
:100361007EAE45AF467C007D641200A07E007F0A10
:10037100CFCDCFCECCCE1200A0AB49AA4AA94B75A6
:100381008204758300EF12007EAE45AF467C007D8E
:100391000A1200A0AF05AB49AA4AA94B758205759F
:1003A1008300EF12007E854547854648AB49AA4A3E
:1003B100A94B120026FF74212FF8E6FF8F8043A07E
:1003C10007E52B52A07F017E00120D6AAB49AA4AB4
:1003D100A94B75820175830012003FFF74212FF82C
:1003E100E6FF8F8043A007E52C52A07F017E00121B
:1003F1000D6AAB49AA4AA94B7582027583001200A6
:100401003FFF74212FF8E6FF8F8043A007E52D52AF
:10041100A07F017E00120D6AAB49AA4AA94B7582E1
:100421000375830012003FFF74212FF8E6FF8F80D0
:1004310043A007E52E52A07F017E00120D6AAB4951
:10044100AA4AA94B75820475830012003FFF7421EB
:100451002FF8E6FF8F8043A007E52F52A07F017E92
:1004610000120D6AAB49AA4AA94B75820575830032
:1004710012003FFF74212FF8E6FF8F8043A007E5AC
:0B0481003052A07F017E00120D6A22A5
:080736008F0B8E0A8D098C085F
:10073E007BA07A8679017800AF0BAE0AAD09AC08C2
:10074E001201968F0D7BA07A8679017800AF0BAEE1
:10075E000AAD09AC08120196AC00AD01AE02AF03B2
:10076E007B107A27790078001201968F0E7B107A13
:10077E002779007800AF0BAE0AAD09AC08120196CE
:10078E00AC00AD01AE02AF037BE87A0379007800CE
:10079E001201968F0F7BE87A0379007800AF0BAECB
:1007AE000AAD09AC08120196AC00AD01AE02AF0362
:1007BE007B647A00790078001201968F107B647A40
:1007CE000079007800AF0BAE0AAD09AC08120196A5
:1007DE00AC00AD01AE02AF037B0A7A00790078005F
:1007EE001201968F117B0A7A0079007800AF0BAE5A
:1007FE000AAD09AC08120196AC00AD01AE02AF0312
:10080E008F12E50C12027B082B00083901084702F3
:10081E000855030863040871050000087E852BA0A7
:10082E00AF0D74212FF8E6FF8F8022852CA0AF0E1E
:10083E0074212FF8E6FF8F8022852DA0AF0F742133
:10084E002FF8E6FF8F8022852EA0AF1074212FF88F
:10085E00E6FF8F8022852FA0AF1174212FF8E6FFBF
:10086E008F80228530A0AF1274212FF8E6FF8F8083
:01087E002257
:10087F008E148F15439850438E05AF19AE18AD17D0
:10088F00AC167B647A00790078001201968F198E6E
:10089F00188D178C16AB19AA18A917A8167F907E5A
:1008AF00D07D037C00120196A804A905AA06AB0708
:1008BF00AE14AF15E4FCFD12010B7B647A007900D6
:1008CF007800120196A804A905AA06AB07C3E49BFA
:1008DF00FFE49AFE740199FDE498FC7B007A01799C
:1008EF000078001201968FD6AB19AA18A917A8166F
:1008FF007F907ED07D037C00120196A804A905AAE3
:10090F0006AB07AE14AF15E4FCFD12010B7B647A46
:10091F000079007800120196A804A905AA06AB0772
:10092F00C3E49BFFE49AFE740199FDE498FCEF5435
:10093F00FFFFEE5400FEED5400FDEC5400FC8FD78A
:06094F00438E10D2AF221E
:100ECD00759850438E01438E0475D7CC75D6FF436C
:030EDD008E102252
:0F0EF0008F1AC2AF851A993099FDC299D2AF22DD
:100E52008B178A188919AB17AA18A919120026FF2D
:100E6200EF6017AB170519E519AA187002051814D7
:0B0E7200F9120026FF120EF080DC22B7
:100EE0008B148A158916AB14AA15A916120E522254
:0B0EFF00309805C298AF99227F0022B6
:080F15003098FDC298AF99224B
:040BFB008E148F15B0
:100BFF00AE14AF15E4FCFD7B007A8079007800C35A
:100C0F00120228401EE51525E0FFE51433FEC3E46C
:100C1F009FF517E49EF516E516FF7E008F8D85175D
:100C2F008B8006758D00758B00538EBF53890F43D4
:040C3F008900C28FD7
:010C4300228E
:040C88008E1B8F1C14
:100C8C00AE1BAF1CE4FCFD7B007A8079007800C3BE
:100C9C00120228401DE51C25E0FFE51B33FEC3E4D2
:100CAC009FF51EE49EF51DE51DFF7E008F8D851EB4
:080CBC008B22758D00758B0081
:010CC400220D
:040BAE008E4C8F4D8D
:100BB200AE4CAF4DE4FCFD7B007A8079007800C337
:100BC200120228401EE54D25E0FFE54C33FEC3E44A
:100BD2009FF54FE49EF54EE54EFF7E008F8C854FCC
:100BE2008A8006758C00758A00538EBF53890F4325
:080BF2008900D2A9D28CD2AF18
:010BFA0022D8
:040CC5008E508F516D
:100CC900AE50AF51E4FCFD7B007A8079007800C317
:100CD900120228401DE55125E0FFE55033FEC3E42B
:100CE9009FF553E49EF552E552FF7E008F8C8553A4
:080CF9008A22758C00758A0047
:010D010022CF
:100B3B0041000400440107000000004200050000D2
:0F0B4B0044000000000000C100015A00015B00DF
:100D9C008E148F15AE14AF157C007D0A1200A08E38
:100DAC00148F15AF15120EB4900004E0FFEF75F020
:100DBC0009A42410F582E43401F583E0FFEF70E818
:010DCC002204
:100E7D00900004E4F090010712024A000000009077
:0C0E8D00000012024A00000000C2002217
:100D0200900004E0FFEF75F009A42411F582E434A9
:100D120001F583E024F3F0900004E0FFEF75F009A1
:100D2200A42411F582E43401F583E0FF8F81D28E91
:050D3200D2ABD2AF229C
:100E9900C2AF900004E0FFEF75F009A42411F582B8
:0B0EA900E43401F583E581F0D2AF22B4
:0A05E8008F148C158D168A178B18DE
:1005F200755A00E55AC394054003020733AF5A7493
:10060200017E00A807088005C333CE33CED8F9FF98
:10061200EE3395E0FDFC900107E0F8A3E0F9A3E0DA
:10062200FAA3E0FBEF5BFFEE5AFEED59FDEC58FC3E
:10063200EC4D4E4F600302072EAF5AEF75F01EA429
:100642002463F8AF008F5C755B00E55BC3941E50BA
:100652000FAF5CA807AF5BE82FF87600055B80EA76
:10066200AF5AEF75F009A42411F582E43401F58341
:10067200E55CF07E00AF16AE5CA806A607AF5AEFA7
:1006820075F009A42411F582E43401F583E004F045
:10069200E515FF7E00AE5CA806E804F8A607AF5A8F
:1006A200EF75F009A42411F582E43401F583E02406
:1006B2000DF0AF5AEF75F009A4240EF582E434016F
:1006C200F583E514F0AF5AEF75F009A42412F58210
:1006D200E43401F583E517F0A3E518F0900107E093
:1006E200FCA3E0FDA3E0FEA3E0FFC004C005C0063A
:1006F200C007AF5A74017E00A807088005C333CE35
:1007020033CED8F9FFAB07AA06EA3395E0F9F8D061
:1007120007D006D005D004EF4BFFEE4AFEED49FDAF
:10072200EC48FC90010712023E7F0022055A0205A6
:03073200F57F014F
:0107350022A1
:03001B0002048C50
:10048C00C0E0C0F0C083C082C0D075D000C000C036
:0D049C0001C002C003C004C005C006C007B7
:1004A900751300C2AFC28F900004E0FFEF75F00929
:1004B900A42411F582E43401F583E581F090000468
:1004C900E4F0751301E513C39405400302058CAFED
:1004D9001374017E00A807088005C333CE33CED834
:1004E900F9FFEE3395E0FDFC900107E0F8A3E0F990
:1004F900A3E0FAA3E0FBEF5BFFEE5AFEED59FDEC3A
:1005090058FCEC4D4E4F6076900004E0FFEF75F01B
:1005190009A4240EF582E43401F583E0FFAE13EE5D
:1005290075F009A4240EF582E43401F583E0FEEEAA
:10053900C39F504AAF13EF75F009A42410F582E464
:100549003401F583E0FFEF6015AF13EF75F009A4EF
:100559002410F582E43401F583E014F08020AF1310
:10056900EF75F009A4240FF582E43401F583E0FF67
:10057900EFB4010480088006900004E513F0051328
:100589000204CE900004E0FFEF75F009A42411F5F0
:1005990082E43401F583E0FF8F81900000E0FCA341
:1005A900E0FDA3E0FEA3E0FF7B017A00790078007B
:1005B900EF2BFFEE3AFEED39FDEC38FC900000120E
:0405C900023ED2AF6D
:1005CD00D007D006D005D004D003D002D001D00082
:0B05DD00D0D0D082D083D0F0D0E0322C
:100EB4008F16900004E0FFEF75F009A42410F5826A
:090EC400E43401F583E516F02287
:0B0F0A007B007A007963AF018F812229
:030000000209FDF5
:0C09FD00787FE4F6D8FD7581F8020A440A
:10002600BB010689828A83E0225002E722BBFE02D8
:09003600E32289828A83E493220B
:10003F00BB010CE58229F582E5833AF583E0225076
:10004F0006E92582F8E622BBFE06E92582F8E222C0
:0D005F00E58229F582E5833AF583E49322DA
:10006C00BB010689828A83F0225002F722BBFE0173
:02007C00F3226D
:10007E00F8BB010DE58229F582E5833AF583E8F0B8
:10008E00225006E92582C8F622BBFE05E92582C864
:02009E00F2224C
:1000A000BC000BBE0029EF8DF084FFADF022E4CC44
:1000B000F875F008EF2FFFEE33FEEC33FCEE9DEC0D
:1000C000984005FCEE9DFE0FD5F0E9E4CEFD22ED53
:1000D000F8F5F0EE8420D21CFEADF075F008EF2F9D
:1000E000FFED33FD4007985006D5F0F222C398FD8E
:0500F0000FD5F0EA222B
:1000F500A3F8E0C5F025F0F0E582158270021583BE
:06010500E0C838F0E8221A
:10010B00E88FF0A4CC8BF0A42CFCE98EF0A42CFC93
:10011B008AF0EDA42CFCEA8EF0A4CDA8F08BF0A411
:10012B002DCC3825F0FDE98FF0A42CCD35F0FCEB70
:10013B008EF0A4FEA9F0EB8FF0A4CFC5F02ECD3935
:0F014B00FEE43CFCEAA42DCE35F0FDE43CFC22A2
:10015A0075F008758200EF2FFFEE33FECD33CDCC5C
:10016A0033CCC58233C5829BED9AEC99E5829840DF
:10017A000CF582EE9BFEED9AFDEC99FC0FD5F0D6BC
:10018A00E4CEFBE4CDFAE4CCF9A88222B800C1B9E6
:10019A000059BA002DEC8BF084CFCECDFCE5F0CB24
:1001AA00F97818EF2FFFEE33FEED33FDEC33FCEB5D
:1001BA0033FB10D703994004EB99FB0FD8E5E4F918
:1001CA00FA227818EF2FFFEE33FEED33FDEC33FC05
:1001DA00C933C910D7059BE99A4007EC9BFCE99AF9
:1001EA00F90FD8E0E4C9FAE4CCFB2275F010EF2F3E
:1001FA00FFEE33FEED33FDCC33CCC833C810D7073E
:10020A009BEC9AE899400AED9BFDEC9AFCE899F878
:0E021A000FD5F0DAE4CDFBE4CCFAE4C8F9220B
:100C4400C2D5E830E70FB2D5E4C39BFBE49AFAE4DB
:100C540099F9E498F8EC30E717B2D5120C7A12013E
:100C640096E4C39BFBE49AFAE499F9E498F88003C8
:100C740012019630D50DE4C39FFFE49EFEE49DFD72
:040C8400E49CFC22CE
:10022800EB9FF5F0EA9E42F0E99D42F0EC6480C84D
:0602380064809845F022ED
:0C023E00ECF0A3EDF0A3EEF0A3EFF02233
:10024A00A8828583F0D083D08212026112026112E1
:10025A000261120261E473E493A3C583C5F0C58306
:10026A00C8C582C8F0A3C583C5F0C583C8C582C8FE
:01027A002261
:10027B00D083D082F8E4937012740193700DA3A312
:10028B0093F8740193F5828883E473740293686026
:06029B00EFA3A3A380DF26
:100A0900020A89E493A3F8E493A34003F68001F270
:100A190008DFF48029E493A3F85407240CC8C333EE
:100A2900C4540F4420C8834004F456800146F6DFBD
:100A3900E4800B0102040810204080900AFFE47E44
:100A4900019360BCA3FF543F30E509541FFEE493B2
:100A5900A360010ECF54C025E060A840B8E493A379
:100A6900FAE493A3F8E493A3C8C582C8CAC583CAA4
:100A7900F0A3C8C582C8CAC583CADFE9DEE780BE5C
:010B5A00009A
:00000001FF
